{
  "_format": "hh-sol-artifact-1",
  "contractName": "SongSplitter",
  "sourceName": "contracts/SongSplitter.sol",
  "abi": [
    {
      "inputs": [
        {
          "internalType": "address[]",
          "name": "_payees",
          "type": "address[]"
        },
        {
          "internalType": "uint256[]",
          "name": "_shares",
          "type": "uint256[]"
        }
      ],
      "stateMutability": "payable",
      "type": "constructor"
    },
    {
      "anonymous": false,
      "inputs": [
        {
          "indexed": false,
          "internalType": "address",
          "name": "from",
          "type": "address"
        },
        {
          "indexed": false,
          "internalType": "uint256",
          "name": "amount",
          "type": "uint256"
        }
      ],
      "name": "PaymentReceived",
      "type": "event"
    },
    {
      "anonymous": false,
      "inputs": [
        {
          "indexed": false,
          "internalType": "address",
          "name": "to",
          "type": "address"
        },
        {
          "indexed": false,
          "internalType": "uint256",
          "name": "amount",
          "type": "uint256"
        }
      ],
      "name": "PaymentReleased",
      "type": "event"
    },
    {
      "inputs": [],
      "name": "distribute",
      "outputs": [],
      "stateMutability": "nonpayable",
      "type": "function"
    },
    {
      "inputs": [
        {
          "internalType": "uint256",
          "name": "",
          "type": "uint256"
        }
      ],
      "name": "payees",
      "outputs": [
        {
          "internalType": "address",
          "name": "",
          "type": "address"
        }
      ],
      "stateMutability": "view",
      "type": "function"
    },
    {
      "inputs": [
        {
          "internalType": "address payable",
          "name": "account",
          "type": "address"
        }
      ],
      "name": "release",
      "outputs": [],
      "stateMutability": "nonpayable",
      "type": "function"
    },
    {
      "inputs": [
        {
          "internalType": "address",
          "name": "",
          "type": "address"
        }
      ],
      "name": "released",
      "outputs": [
        {
          "internalType": "uint256",
          "name": "",
          "type": "uint256"
        }
      ],
      "stateMutability": "view",
      "type": "function"
    },
    {
      "inputs": [
        {
          "internalType": "address",
          "name": "",
          "type": "address"
        }
      ],
      "name": "shares",
      "outputs": [
        {
          "internalType": "uint256",
          "name": "",
          "type": "uint256"
        }
      ],
      "stateMutability": "view",
      "type": "function"
    },
    {
      "inputs": [],
      "name": "totalReleased",
      "outputs": [
        {
          "internalType": "uint256",
          "name": "",
          "type": "uint256"
        }
      ],
      "stateMutability": "view",
      "type": "function"
    },
    {
      "inputs": [],
      "name": "totalShares",
      "outputs": [
        {
          "internalType": "uint256",
          "name": "",
          "type": "uint256"
        }
      ],
      "stateMutability": "view",
      "type": "function"
    },
    {
      "stateMutability": "payable",
      "type": "receive"
    }
  ],
  "bytecode": "0x6080604052604051620016fd380380620016fd83398181016040528101906200002991906200062c565b805182511462000070576040517f08c379a0000000000000000000000000000000000000000000000000000000008152600401620000679062000712565b60405180910390fd5b6000825111620000b7576040517f08c379a0000000000000000000000000000000000000000000000000000000008152600401620000ae9062000784565b60405180910390fd5b60005b8251811015620001265762000110838281518110620000de57620000dd620007a6565b5b6020026020010151838381518110620000fc57620000fb620007a6565b5b60200260200101516200012f60201b60201c565b80806200011d9062000804565b915050620000ba565b50505062000a08565b600073ffffffffffffffffffffffffffffffffffffffff168273ffffffffffffffffffffffffffffffffffffffff1603620001a1576040517f08c379a00000000000000000000000000000000000000000000000000000000081526004016200019890620008c7565b60405180910390fd5b60008111620001e7576040517f08c379a0000000000000000000000000000000000000000000000000000000008152600401620001de9062000939565b60405180910390fd5b6000600260008473ffffffffffffffffffffffffffffffffffffffff1673ffffffffffffffffffffffffffffffffffffffff16815260200190815260200160002054146200026c576040517f08c379a00000000000000000000000000000000000000000000000000000000081526004016200026390620009ab565b60405180910390fd5b6004829080600181540180825580915050600190039060005260206000200160009091909190916101000a81548173ffffffffffffffffffffffffffffffffffffffff021916908373ffffffffffffffffffffffffffffffffffffffff16021790555080600260008473ffffffffffffffffffffffffffffffffffffffff1673ffffffffffffffffffffffffffffffffffffffff1681526020019081526020016000208190555080600054620003239190620009cd565b6000819055505050565b6000604051905090565b600080fd5b600080fd5b600080fd5b6000601f19601f8301169050919050565b7f4e487b7100000000000000000000000000000000000000000000000000000000600052604160045260246000fd5b620003918262000346565b810181811067ffffffffffffffff82111715620003b357620003b262000357565b5b80604052505050565b6000620003c86200032d565b9050620003d6828262000386565b919050565b600067ffffffffffffffff821115620003f957620003f862000357565b5b602082029050602081019050919050565b600080fd5b600073ffffffffffffffffffffffffffffffffffffffff82169050919050565b60006200043c826200040f565b9050919050565b6200044e816200042f565b81146200045a57600080fd5b50565b6000815190506200046e8162000443565b92915050565b60006200048b6200048584620003db565b620003bc565b90508083825260208201905060208402830185811115620004b157620004b06200040a565b5b835b81811015620004de5780620004c988826200045d565b845260208401935050602081019050620004b3565b5050509392505050565b600082601f8301126200050057620004ff62000341565b5b81516200051284826020860162000474565b91505092915050565b600067ffffffffffffffff82111562000539576200053862000357565b5b602082029050602081019050919050565b6000819050919050565b6200055f816200054a565b81146200056b57600080fd5b50565b6000815190506200057f8162000554565b92915050565b60006200059c62000596846200051b565b620003bc565b90508083825260208201905060208402830185811115620005c257620005c16200040a565b5b835b81811015620005ef5780620005da88826200056e565b845260208401935050602081019050620005c4565b5050509392505050565b600082601f83011262000611576200061062000341565b5b81516200062384826020860162000585565b91505092915050565b6000806040838503121562000646576200064562000337565b5b600083015167ffffffffffffffff8111156200066757620006666200033c565b5b6200067585828601620004e8565b925050602083015167ffffffffffffffff8111156200069957620006986200033c565b5b620006a785828601620005f9565b9150509250929050565b600082825260208201905092915050565b7f53706c69747465723a206c656e677468206d69736d6174636800000000000000600082015250565b6000620006fa601983620006b1565b91506200070782620006c2565b602082019050919050565b600060208201905081810360008301526200072d81620006eb565b9050919050565b7f53706c69747465723a206e6f2070617965657300000000000000000000000000600082015250565b60006200076c601383620006b1565b9150620007798262000734565b602082019050919050565b600060208201905081810360008301526200079f816200075d565b9050919050565b7f4e487b7100000000000000000000000000000000000000000000000000000000600052603260045260246000fd5b7f4e487b7100000000000000000000000000000000000000000000000000000000600052601160045260246000fd5b600062000811826200054a565b91507fffffffffffffffffffffffffffffffffffffffffffffffffffffffffffffffff8203620008465762000845620007d5565b5b600182019050919050565b7f53706c69747465723a206163636f756e74206973207a65726f2061646472657360008201527f7300000000000000000000000000000000000000000000000000000000000000602082015250565b6000620008af602183620006b1565b9150620008bc8262000851565b604082019050919050565b60006020820190508181036000830152620008e281620008a0565b9050919050565b7f53706c69747465723a2073686172657320617265203000000000000000000000600082015250565b600062000921601683620006b1565b91506200092e82620008e9565b602082019050919050565b60006020820190508181036000830152620009548162000912565b9050919050565b7f53706c69747465723a206163636f756e74206861732073686172657300000000600082015250565b600062000993601c83620006b1565b9150620009a0826200095b565b602082019050919050565b60006020820190508181036000830152620009c68162000984565b9050919050565b6000620009da826200054a565b9150620009e7836200054a565b925082820190508082111562000a025762000a01620007d5565b5b92915050565b610ce58062000a186000396000f3fe6080604052600436106100745760003560e01c80639852595c1161004e5780639852595c1461014a578063ce7c2ac214610187578063e33b7de3146101c4578063e4fc6b6d146101ef576100b4565b806319165587146100b95780633a98ef39146100e257806363037b0c1461010d576100b4565b366100b4577f6ef95f06320e7a25a04a175ca677b7052bdd97131872c2192525a629f51be77033346040516100aa9291906106a3565b60405180910390a1005b600080fd5b3480156100c557600080fd5b506100e060048036038101906100db919061070f565b610206565b005b3480156100ee57600080fd5b506100f761046d565b604051610104919061073c565b60405180910390f35b34801561011957600080fd5b50610134600480360381019061012f9190610783565b610473565b60405161014191906107b0565b60405180910390f35b34801561015657600080fd5b50610171600480360381019061016c91906107f7565b6104b2565b60405161017e919061073c565b60405180910390f35b34801561019357600080fd5b506101ae60048036038101906101a991906107f7565b6104ca565b6040516101bb919061073c565b60405180910390f35b3480156101d057600080fd5b506101d96104e2565b6040516101e6919061073c565b60405180910390f35b3480156101fb57600080fd5b506102046104e8565b005b6000600260008373ffffffffffffffffffffffffffffffffffffffff1673ffffffffffffffffffffffffffffffffffffffff1681526020019081526020016000205411610288576040517f08c379a000000000000000000000000000000000000000000000000000000000815260040161027f90610881565b60405180910390fd5b60006001544761029891906108d0565b90506000600360008473ffffffffffffffffffffffffffffffffffffffff1673ffffffffffffffffffffffffffffffffffffffff16815260200190815260200160002054600054600260008673ffffffffffffffffffffffffffffffffffffffff1673ffffffffffffffffffffffffffffffffffffffff168152602001908152602001600020548461032a9190610904565b6103349190610975565b61033e91906109a6565b905060008103610383576040517f08c379a000000000000000000000000000000000000000000000000000000000815260040161037a90610a4c565b60405180910390fd5b80600360008573ffffffffffffffffffffffffffffffffffffffff1673ffffffffffffffffffffffffffffffffffffffff168152602001908152602001600020546103ce91906108d0565b600360008573ffffffffffffffffffffffffffffffffffffffff1673ffffffffffffffffffffffffffffffffffffffff168152602001908152602001600020819055508060015461041f91906108d0565b60018190555061042f8382610555565b7fdf20fd1e76bc69d672e4814fafb2c449bba3a5369d8359adf9e05e6fde87b0568382604051610460929190610acb565b60405180910390a1505050565b60005481565b6004818154811061048357600080fd5b906000526020600020016000915054906101000a900473ffffffffffffffffffffffffffffffffffffffff1681565b60036020528060005260406000206000915090505481565b60026020528060005260406000206000915090505481565b60015481565b60005b6004805490508110156105525761053f6004828154811061050f5761050e610af4565b5b9060005260206000200160009054906101000a900473ffffffffffffffffffffffffffffffffffffffff16610206565b808061054a90610b23565b9150506104eb565b50565b80471015610598576040517f08c379a000000000000000000000000000000000000000000000000000000000815260040161058f90610bb7565b60405180910390fd5b60008273ffffffffffffffffffffffffffffffffffffffff16826040516105be90610c08565b60006040518083038185875af1925050503d80600081146105fb576040519150601f19603f3d011682016040523d82523d6000602084013e610600565b606091505b5050905080610644576040517f08c379a000000000000000000000000000000000000000000000000000000000815260040161063b90610c8f565b60405180910390fd5b505050565b600073ffffffffffffffffffffffffffffffffffffffff82169050919050565b600061067482610649565b9050919050565b61068481610669565b82525050565b6000819050919050565b61069d8161068a565b82525050565b60006040820190506106b8600083018561067b565b6106c56020830184610694565b9392505050565b600080fd5b60006106dc82610649565b9050919050565b6106ec816106d1565b81146106f757600080fd5b50565b600081359050610709816106e3565b92915050565b600060208284031215610725576107246106cc565b5b6000610733848285016106fa565b91505092915050565b60006020820190506107516000830184610694565b92915050565b6107608161068a565b811461076b57600080fd5b50565b60008135905061077d81610757565b92915050565b600060208284031215610799576107986106cc565b5b60006107a78482850161076e565b91505092915050565b60006020820190506107c5600083018461067b565b92915050565b6107d481610669565b81146107df57600080fd5b50565b6000813590506107f1816107cb565b92915050565b60006020828403121561080d5761080c6106cc565b5b600061081b848285016107e2565b91505092915050565b600082825260208201905092915050565b7f53706c69747465723a206163636f756e7420686173206e6f2073686172657300600082015250565b600061086b601f83610824565b915061087682610835565b602082019050919050565b6000602082019050818103600083015261089a8161085e565b9050919050565b7f4e487b7100000000000000000000000000000000000000000000000000000000600052601160045260246000fd5b60006108db8261068a565b91506108e68361068a565b92508282019050808211156108fe576108fd6108a1565b5b92915050565b600061090f8261068a565b915061091a8361068a565b92508282026109288161068a565b9150828204841483151761093f5761093e6108a1565b5b5092915050565b7f4e487b7100000000000000000000000000000000000000000000000000000000600052601260045260246000fd5b60006109808261068a565b915061098b8361068a565b92508261099b5761099a610946565b5b828204905092915050565b60006109b18261068a565b91506109bc8361068a565b92508282039050818111156109d4576109d36108a1565b5b92915050565b7f53706c69747465723a206163636f756e74206973206e6f74206475652070617960008201527f6d656e7400000000000000000000000000000000000000000000000000000000602082015250565b6000610a36602483610824565b9150610a41826109da565b604082019050919050565b60006020820190508181036000830152610a6581610a29565b9050919050565b6000819050919050565b6000610a91610a8c610a8784610649565b610a6c565b610649565b9050919050565b6000610aa382610a76565b9050919050565b6000610ab582610a98565b9050919050565b610ac581610aaa565b82525050565b6000604082019050610ae06000830185610abc565b610aed6020830184610694565b9392505050565b7f4e487b7100000000000000000000000000000000000000000000000000000000600052603260045260246000fd5b6000610b2e8261068a565b91507fffffffffffffffffffffffffffffffffffffffffffffffffffffffffffffffff8203610b6057610b5f6108a1565b5b600182019050919050565b7f416464726573733a20696e73756666696369656e742062616c616e6365000000600082015250565b6000610ba1601d83610824565b9150610bac82610b6b565b602082019050919050565b60006020820190508181036000830152610bd081610b94565b9050919050565b600081905092915050565b50565b6000610bf2600083610bd7565b9150610bfd82610be2565b600082019050919050565b6000610c1382610be5565b9150819050919050565b7f416464726573733a20756e61626c6520746f2073656e642076616c75652c207260008201527f6563697069656e74206d61792068617665207265766572746564000000000000602082015250565b6000610c79603a83610824565b9150610c8482610c1d565b604082019050919050565b60006020820190508181036000830152610ca881610c6c565b905091905056fea2646970667358221220af6a10ce8065df73346c4956936dedcbd6539025f3d1c2a7b37937986cf1b3db64736f6c63430008140033",
  "linkReferences": {},
  "deployedLinkReferences": {}
}