{
  "_format": "hh-sol-artifact-1",
  "contractName": "CR8TEMusic",
  "sourceName": "contracts/CR8TEMusic.sol",
  "abi": [
    {
      "inputs": [],
      "stateMutability": "nonpayable",
      "type": "constructor"
    },
    {
      "inputs": [
        {
          "internalType": "address",
          "name": "sender",
          "type": "address"
        },
        {
          "internalType": "uint256",
          "name": "balance",
          "type": "uint256"
        },
        {
          "internalType": "uint256",
          "name": "needed",
          "type": "uint256"
        },
        {
          "internalType": "uint256",
          "name": "tokenId",
          "type": "uint256"
        }
      ],
      "name": "ERC1155InsufficientBalance",
      "type": "error"
    },
    {
      "inputs": [
        {
          "internalType": "address",
          "name": "approver",
          "type": "address"
        }
      ],
      "name": "ERC1155InvalidApprover",
      "type": "error"
    },
    {
      "inputs": [
        {
          "internalType": "uint256",
          "name": "idsLength",
          "type": "uint256"
        },
        {
          "internalType": "uint256",
          "name": "valuesLength",
          "type": "uint256"
        }
      ],
      "name": "ERC1155InvalidArrayLength",
      "type": "error"
    },
    {
      "inputs": [
        {
          "internalType": "address",
          "name": "operator",
          "type": "address"
        }
      ],
      "name": "ERC1155InvalidOperator",
      "type": "error"
    },
    {
      "inputs": [
        {
          "internalType": "address",
          "name": "receiver",
          "type": "address"
        }
      ],
      "name": "ERC1155InvalidReceiver",
      "type": "error"
    },
    {
      "inputs": [
        {
          "internalType": "address",
          "name": "sender",
          "type": "address"
        }
      ],
      "name": "ERC1155InvalidSender",
      "type": "error"
    },
    {
      "inputs": [
        {
          "internalType": "address",
          "name": "operator",
          "type": "address"
        },
        {
          "internalType": "address",
          "name": "owner",
          "type": "address"
        }
      ],
      "name": "ERC1155MissingApprovalForAll",
      "type": "error"
    },
    {
      "inputs": [
        {
          "internalType": "uint256",
          "name": "numerator",
          "type": "uint256"
        },
        {
          "internalType": "uint256",
          "name": "denominator",
          "type": "uint256"
        }
      ],
      "name": "ERC2981InvalidDefaultRoyalty",
      "type": "error"
    },
    {
      "inputs": [
        {
          "internalType": "address",
          "name": "receiver",
          "type": "address"
        }
      ],
      "name": "ERC2981InvalidDefaultRoyaltyReceiver",
      "type": "error"
    },
    {
      "inputs": [
        {
          "internalType": "uint256",
          "name": "tokenId",
          "type": "uint256"
        },
        {
          "internalType": "uint256",
          "name": "numerator",
          "type": "uint256"
        },
        {
          "internalType": "uint256",
          "name": "denominator",
          "type": "uint256"
        }
      ],
      "name": "ERC2981InvalidTokenRoyalty",
      "type": "error"
    },
    {
      "inputs": [
        {
          "internalType": "uint256",
          "name": "tokenId",
          "type": "uint256"
        },
        {
          "internalType": "address",
          "name": "receiver",
          "type": "address"
        }
      ],
      "name": "ERC2981InvalidTokenRoyaltyReceiver",
      "type": "error"
    },
    {
      "inputs": [
        {
          "internalType": "address",
          "name": "owner",
          "type": "address"
        }
      ],
      "name": "OwnableInvalidOwner",
      "type": "error"
    },
    {
      "inputs": [
        {
          "internalType": "address",
          "name": "account",
          "type": "address"
        }
      ],
      "name": "OwnableUnauthorizedAccount",
      "type": "error"
    },
    {
      "anonymous": false,
      "inputs": [
        {
          "indexed": true,
          "internalType": "address",
          "name": "account",
          "type": "address"
        },
        {
          "indexed": true,
          "internalType": "address",
          "name": "operator",
          "type": "address"
        },
        {
          "indexed": false,
          "internalType": "bool",
          "name": "approved",
          "type": "bool"
        }
      ],
      "name": "ApprovalForAll",
      "type": "event"
    },
    {
      "anonymous": false,
      "inputs": [
        {
          "indexed": true,
          "internalType": "address",
          "name": "previousOwner",
          "type": "address"
        },
        {
          "indexed": true,
          "internalType": "address",
          "name": "newOwner",
          "type": "address"
        }
      ],
      "name": "OwnershipTransferred",
      "type": "event"
    },
    {
      "anonymous": false,
      "inputs": [
        {
          "indexed": true,
          "internalType": "address",
          "name": "operator",
          "type": "address"
        },
        {
          "indexed": true,
          "internalType": "address",
          "name": "from",
          "type": "address"
        },
        {
          "indexed": true,
          "internalType": "address",
          "name": "to",
          "type": "address"
        },
        {
          "indexed": false,
          "internalType": "uint256[]",
          "name": "ids",
          "type": "uint256[]"
        },
        {
          "indexed": false,
          "internalType": "uint256[]",
          "name": "values",
          "type": "uint256[]"
        }
      ],
      "name": "TransferBatch",
      "type": "event"
    },
    {
      "anonymous": false,
      "inputs": [
        {
          "indexed": true,
          "internalType": "address",
          "name": "operator",
          "type": "address"
        },
        {
          "indexed": true,
          "internalType": "address",
          "name": "from",
          "type": "address"
        },
        {
          "indexed": true,
          "internalType": "address",
          "name": "to",
          "type": "address"
        },
        {
          "indexed": false,
          "internalType": "uint256",
          "name": "id",
          "type": "uint256"
        },
        {
          "indexed": false,
          "internalType": "uint256",
          "name": "value",
          "type": "uint256"
        }
      ],
      "name": "TransferSingle",
      "type": "event"
    },
    {
      "anonymous": false,
      "inputs": [
        {
          "indexed": false,
          "internalType": "string",
          "name": "value",
          "type": "string"
        },
        {
          "indexed": true,
          "internalType": "uint256",
          "name": "id",
          "type": "uint256"
        }
      ],
      "name": "URI",
      "type": "event"
    },
    {
      "inputs": [
        {
          "internalType": "address",
          "name": "account",
          "type": "address"
        },
        {
          "internalType": "uint256",
          "name": "id",
          "type": "uint256"
        }
      ],
      "name": "balanceOf",
      "outputs": [
        {
          "internalType": "uint256",
          "name": "",
          "type": "uint256"
        }
      ],
      "stateMutability": "view",
      "type": "function"
    },
    {
      "inputs": [
        {
          "internalType": "address[]",
          "name": "accounts",
          "type": "address[]"
        },
        {
          "internalType": "uint256[]",
          "name": "ids",
          "type": "uint256[]"
        }
      ],
      "name": "balanceOfBatch",
      "outputs": [
        {
          "internalType": "uint256[]",
          "name": "",
          "type": "uint256[]"
        }
      ],
      "stateMutability": "view",
      "type": "function"
    },
    {
      "inputs": [],
      "name": "getAllTracks",
      "outputs": [
        {
          "components": [
            {
              "internalType": "uint256",
              "name": "id",
              "type": "uint256"
            },
            {
              "internalType": "address",
              "name": "artist",
              "type": "address"
            },
            {
              "internalType": "string",
              "name": "uri",
              "type": "string"
            }
          ],
          "internalType": "struct CR8TEMusic.Track[]",
          "name": "",
          "type": "tuple[]"
        }
      ],
      "stateMutability": "view",
      "type": "function"
    },
    {
      "inputs": [
        {
          "internalType": "address",
          "name": "account",
          "type": "address"
        },
        {
          "internalType": "address",
          "name": "operator",
          "type": "address"
        }
      ],
      "name": "isApprovedForAll",
      "outputs": [
        {
          "internalType": "bool",
          "name": "",
          "type": "bool"
        }
      ],
      "stateMutability": "view",
      "type": "function"
    },
    {
      "inputs": [
        {
          "internalType": "string",
          "name": "_tokenURI",
          "type": "string"
        },
        {
          "internalType": "uint96",
          "name": "_royaltyFeeNumerator",
          "type": "uint96"
        },
        {
          "internalType": "address",
          "name": "_royaltyReceiver",
          "type": "address"
        }
      ],
      "name": "mintTrack",
      "outputs": [
        {
          "internalType": "uint256",
          "name": "",
          "type": "uint256"
        }
      ],
      "stateMutability": "nonpayable",
      "type": "function"
    },
    {
      "inputs": [],
      "name": "nextTokenId",
      "outputs": [
        {
          "internalType": "uint256",
          "name": "",
          "type": "uint256"
        }
      ],
      "stateMutability": "view",
      "type": "function"
    },
    {
      "inputs": [],
      "name": "owner",
      "outputs": [
        {
          "internalType": "address",
          "name": "",
          "type": "address"
        }
      ],
      "stateMutability": "view",
      "type": "function"
    },
    {
      "inputs": [],
      "name": "renounceOwnership",
      "outputs": [],
      "stateMutability": "nonpayable",
      "type": "function"
    },
    {
      "inputs": [
        {
          "internalType": "uint256",
          "name": "tokenId",
          "type": "uint256"
        },
        {
          "internalType": "uint256",
          "name": "salePrice",
          "type": "uint256"
        }
      ],
      "name": "royaltyInfo",
      "outputs": [
        {
          "internalType": "address",
          "name": "receiver",
          "type": "address"
        },
        {
          "internalType": "uint256",
          "name": "amount",
          "type": "uint256"
        }
      ],
      "stateMutability": "view",
      "type": "function"
    },
    {
      "inputs": [
        {
          "internalType": "address",
          "name": "from",
          "type": "address"
        },
        {
          "internalType": "address",
          "name": "to",
          "type": "address"
        },
        {
          "internalType": "uint256[]",
          "name": "ids",
          "type": "uint256[]"
        },
        {
          "internalType": "uint256[]",
          "name": "values",
          "type": "uint256[]"
        },
        {
          "internalType": "bytes",
          "name": "data",
          "type": "bytes"
        }
      ],
      "name": "safeBatchTransferFrom",
      "outputs": [],
      "stateMutability": "nonpayable",
      "type": "function"
    },
    {
      "inputs": [
        {
          "internalType": "address",
          "name": "from",
          "type": "address"
        },
        {
          "internalType": "address",
          "name": "to",
          "type": "address"
        },
        {
          "internalType": "uint256",
          "name": "id",
          "type": "uint256"
        },
        {
          "internalType": "uint256",
          "name": "value",
          "type": "uint256"
        },
        {
          "internalType": "bytes",
          "name": "data",
          "type": "bytes"
        }
      ],
      "name": "safeTransferFrom",
      "outputs": [],
      "stateMutability": "nonpayable",
      "type": "function"
    },
    {
      "inputs": [
        {
          "internalType": "address",
          "name": "operator",
          "type": "address"
        },
        {
          "internalType": "bool",
          "name": "approved",
          "type": "bool"
        }
      ],
      "name": "setApprovalForAll",
      "outputs": [],
      "stateMutability": "nonpayable",
      "type": "function"
    },
    {
      "inputs": [
        {
          "internalType": "bytes4",
          "name": "interfaceId",
          "type": "bytes4"
        }
      ],
      "name": "supportsInterface",
      "outputs": [
        {
          "internalType": "bool",
          "name": "",
          "type": "bool"
        }
      ],
      "stateMutability": "view",
      "type": "function"
    },
    {
      "inputs": [
        {
          "internalType": "uint256",
          "name": "",
          "type": "uint256"
        }
      ],
      "name": "tracks",
      "outputs": [
        {
          "internalType": "uint256",
          "name": "id",
          "type": "uint256"
        },
        {
          "internalType": "address",
          "name": "artist",
          "type": "address"
        },
        {
          "internalType": "string",
          "name": "uri",
          "type": "string"
        }
      ],
      "stateMutability": "view",
      "type": "function"
    },
    {
      "inputs": [
        {
          "internalType": "address",
          "name": "newOwner",
          "type": "address"
        }
      ],
      "name": "transferOwnership",
      "outputs": [],
      "stateMutability": "nonpayable",
      "type": "function"
    },
    {
      "inputs": [
        {
          "internalType": "uint256",
          "name": "tokenId",
          "type": "uint256"
        }
      ],
      "name": "uri",
      "outputs": [
        {
          "internalType": "string",
          "name": "",
          "type": "string"
        }
      ],
      "stateMutability": "view",
      "type": "function"
    }
  ],
  "bytecode": "0x6080604052604051806020016040528060008152506003908162000024919062000438565b503480156200003257600080fd5b5033604051806020016040528060008152506200005581620000e360201b60201c565b50600073ffffffffffffffffffffffffffffffffffffffff168173ffffffffffffffffffffffffffffffffffffffff1603620000cb5760006040517f1e4fbdf7000000000000000000000000000000000000000000000000000000008152600401620000c2919062000564565b60405180910390fd5b620000dc81620000f860201b60201c565b5062000581565b8060029081620000f4919062000438565b5050565b6000600560009054906101000a900473ffffffffffffffffffffffffffffffffffffffff16905081600560006101000a81548173ffffffffffffffffffffffffffffffffffffffff021916908373ffffffffffffffffffffffffffffffffffffffff1602179055508173ffffffffffffffffffffffffffffffffffffffff168173ffffffffffffffffffffffffffffffffffffffff167f8be0079c531659141344cd1fd0a4f28419497f9722a3daafe3b4186f6b6457e060405160405180910390a35050565b600081519050919050565b7f4e487b7100000000000000000000000000000000000000000000000000000000600052604160045260246000fd5b7f4e487b7100000000000000000000000000000000000000000000000000000000600052602260045260246000fd5b600060028204905060018216806200024057607f821691505b602082108103620002565762000255620001f8565b5b50919050565b60008190508160005260206000209050919050565b60006020601f8301049050919050565b600082821b905092915050565b600060088302620002c07fffffffffffffffffffffffffffffffffffffffffffffffffffffffffffffffff8262000281565b620002cc868362000281565b95508019841693508086168417925050509392505050565b6000819050919050565b6000819050919050565b600062000319620003136200030d84620002e4565b620002ee565b620002e4565b9050919050565b6000819050919050565b6200033583620002f8565b6200034d620003448262000320565b8484546200028e565b825550505050565b600090565b6200036462000355565b620003718184846200032a565b505050565b5b8181101562000399576200038d6000826200035a565b60018101905062000377565b5050565b601f821115620003e857620003b2816200025c565b620003bd8462000271565b81016020851015620003cd578190505b620003e5620003dc8562000271565b83018262000376565b50505b505050565b600082821c905092915050565b60006200040d60001984600802620003ed565b1980831691505092915050565b6000620004288383620003fa565b9150826002028217905092915050565b6200044382620001be565b67ffffffffffffffff8111156200045f576200045e620001c9565b5b6200046b825462000227565b620004788282856200039d565b600060209050601f831160018114620004b057600084156200049b578287015190505b620004a785826200041a565b86555062000517565b601f198416620004c0866200025c565b60005b82811015620004ea57848901518255600182019150602085019450602081019050620004c3565b868310156200050a578489015162000506601f891682620003fa565b8355505b6001600288020188555050505b505050505050565b600073ffffffffffffffffffffffffffffffffffffffff82169050919050565b60006200054c826200051f565b9050919050565b6200055e816200053f565b82525050565b60006020820190506200057b600083018462000553565b92915050565b6133f780620005916000396000f3fe608060405234801561001057600080fd5b50600436106100ff5760003560e01c80638da5cb5b11610097578063e431cd7511610066578063e431cd75146102c3578063e985e9c5146102f3578063f242432a14610323578063f2fde38b1461033f576100ff565b80638da5cb5b14610239578063a22cb46514610257578063a2e3458614610273578063c0678a66146102a5576100ff565b80632eb2c2d6116100d35780632eb2c2d6146101c55780634e1273f4146101e1578063715018a61461021157806375794a3c1461021b576100ff565b8062fdd58e1461010457806301ffc9a7146101345780630e89341c146101645780632a55205a14610194575b600080fd5b61011e60048036038101906101199190611fbf565b61035b565b60405161012b919061200e565b60405180910390f35b61014e60048036038101906101499190612081565b6103b5565b60405161015b91906120c9565b60405180910390f35b61017e600480360381019061017991906120e4565b6103c7565b60405161018b91906121a1565b60405180910390f35b6101ae60048036038101906101a991906121c3565b6103d9565b6040516101bc929190612212565b60405180910390f35b6101df60048036038101906101da9190612438565b610509565b005b6101fb60048036038101906101f691906125ca565b6105b1565b6040516102089190612700565b60405180910390f35b6102196106c0565b005b6102236106d4565b604051610230919061200e565b60405180910390f35b6102416106da565b60405161024e9190612722565b60405180910390f35b610271600480360381019061026c9190612769565b610704565b005b61028d600480360381019061028891906120e4565b61071a565b60405161029c939291906127a9565b60405180910390f35b6102ad6107fc565b6040516102ba9190612952565b60405180910390f35b6102dd60048036038101906102d89190612a59565b61094d565b6040516102ea919061200e565b60405180910390f35b61030d60048036038101906103089190612ac8565b610a6e565b60405161031a91906120c9565b60405180910390f35b61033d60048036038101906103389190612b08565b610b02565b005b61035960048036038101906103549190612b9f565b610baa565b005b600080600083815260200190815260200160002060008473ffffffffffffffffffffffffffffffffffffffff1673ffffffffffffffffffffffffffffffffffffffff16815260200190815260200160002054905092915050565b60006103c082610c30565b9050919050565b60606103d282610caa565b9050919050565b600080600060076000868152602001908152602001600020905060008160000160009054906101000a900473ffffffffffffffffffffffffffffffffffffffff16905060008260000160149054906101000a90046bffffffffffffffffffffffff169050600073ffffffffffffffffffffffffffffffffffffffff168273ffffffffffffffffffffffffffffffffffffffff16036104ba57600660000160009054906101000a900473ffffffffffffffffffffffffffffffffffffffff169150600660000160149054906101000a90046bffffffffffffffffffffffff1690505b60006104c4610d8f565b6bffffffffffffffffffffffff16826bffffffffffffffffffffffff16886104ec9190612bfb565b6104f69190612c6c565b9050828195509550505050509250929050565b6000610513610d99565b90508073ffffffffffffffffffffffffffffffffffffffff168673ffffffffffffffffffffffffffffffffffffffff161415801561055857506105568682610a6e565b155b1561059c5780866040517fe237d922000000000000000000000000000000000000000000000000000000008152600401610593929190612c9d565b60405180910390fd5b6105a98686868686610da1565b505050505050565b606081518351146105fd57815183516040517f5b0599910000000000000000000000000000000000000000000000000000000081526004016105f4929190612cc6565b60405180910390fd5b6000835167ffffffffffffffff81111561061a57610619612240565b5b6040519080825280602002602001820160405280156106485781602001602082028036833780820191505090505b50905060005b84518110156106b55761068561066d8287610e9990919063ffffffff16565b6106808387610ead90919063ffffffff16565b61035b565b82828151811061069857610697612cef565b5b602002602001018181525050806106ae90612d1e565b905061064e565b508091505092915050565b6106c8610ec1565b6106d26000610f48565b565b60085481565b6000600560009054906101000a900473ffffffffffffffffffffffffffffffffffffffff16905090565b61071661070f610d99565b838361100e565b5050565b6009818154811061072a57600080fd5b90600052602060002090600302016000915090508060000154908060010160009054906101000a900473ffffffffffffffffffffffffffffffffffffffff169080600201805461077990612d95565b80601f01602080910402602001604051908101604052809291908181526020018280546107a590612d95565b80156107f25780601f106107c7576101008083540402835291602001916107f2565b820191906000526020600020905b8154815290600101906020018083116107d557829003601f168201915b5050505050905083565b60606009805480602002602001604051908101604052809291908181526020016000905b828210156109445783829060005260206000209060030201604051806060016040529081600082015481526020016001820160009054906101000a900473ffffffffffffffffffffffffffffffffffffffff1673ffffffffffffffffffffffffffffffffffffffff1673ffffffffffffffffffffffffffffffffffffffff1681526020016002820180546108b390612d95565b80601f01602080910402602001604051908101604052809291908181526020018280546108df90612d95565b801561092c5780601f106109015761010080835404028352916020019161092c565b820191906000526020600020905b81548152906001019060200180831161090f57829003601f168201915b50505050508152505081526020019060010190610820565b50505050905090565b6000806008549050610971338260016040518060200160405280600081525061117e565b61097b8186611217565b61098681848661127c565b600960405180606001604052808381526020013373ffffffffffffffffffffffffffffffffffffffff1681526020018781525090806001815401808255809150506001900390600052602060002090600302016000909190919091506000820151816000015560208201518160010160006101000a81548173ffffffffffffffffffffffffffffffffffffffff021916908373ffffffffffffffffffffffffffffffffffffffff1602179055506040820151816002019081610a489190612f72565b50505060086000815480929190610a5e90612d1e565b9190505550809150509392505050565b6000600160008473ffffffffffffffffffffffffffffffffffffffff1673ffffffffffffffffffffffffffffffffffffffff16815260200190815260200160002060008373ffffffffffffffffffffffffffffffffffffffff1673ffffffffffffffffffffffffffffffffffffffff16815260200190815260200160002060009054906101000a900460ff16905092915050565b6000610b0c610d99565b90508073ffffffffffffffffffffffffffffffffffffffff168673ffffffffffffffffffffffffffffffffffffffff1614158015610b515750610b4f8682610a6e565b155b15610b955780866040517fe237d922000000000000000000000000000000000000000000000000000000008152600401610b8c929190612c9d565b60405180910390fd5b610ba28686868686611434565b505050505050565b610bb2610ec1565b600073ffffffffffffffffffffffffffffffffffffffff168173ffffffffffffffffffffffffffffffffffffffff1603610c245760006040517f1e4fbdf7000000000000000000000000000000000000000000000000000000008152600401610c1b9190612722565b60405180910390fd5b610c2d81610f48565b50565b60007f2a55205a000000000000000000000000000000000000000000000000000000007bffffffffffffffffffffffffffffffffffffffffffffffffffffffff1916827bffffffffffffffffffffffffffffffffffffffffffffffffffffffff19161480610ca35750610ca28261153f565b5b9050919050565b60606000600460008481526020019081526020016000208054610ccc90612d95565b80601f0160208091040260200160405190810160405280929190818152602001828054610cf890612d95565b8015610d455780601f10610d1a57610100808354040283529160200191610d45565b820191906000526020600020905b815481529060010190602001808311610d2857829003601f168201915b505050505090506000815111610d6357610d5e83611621565b610d87565b600381604051602001610d77929190613103565b6040516020818303038152906040525b915050919050565b6000612710905090565b600033905090565b600073ffffffffffffffffffffffffffffffffffffffff168473ffffffffffffffffffffffffffffffffffffffff1603610e135760006040517f57f447ce000000000000000000000000000000000000000000000000000000008152600401610e0a9190612722565b60405180910390fd5b600073ffffffffffffffffffffffffffffffffffffffff168573ffffffffffffffffffffffffffffffffffffffff1603610e855760006040517f01a83514000000000000000000000000000000000000000000000000000000008152600401610e7c9190612722565b60405180910390fd5b610e9285858585856116b5565b5050505050565b600060208202602084010151905092915050565b600060208202602084010151905092915050565b610ec9610d99565b73ffffffffffffffffffffffffffffffffffffffff16610ee76106da565b73ffffffffffffffffffffffffffffffffffffffff1614610f4657610f0a610d99565b6040517f118cdaa7000000000000000000000000000000000000000000000000000000008152600401610f3d9190612722565b60405180910390fd5b565b6000600560009054906101000a900473ffffffffffffffffffffffffffffffffffffffff16905081600560006101000a81548173ffffffffffffffffffffffffffffffffffffffff021916908373ffffffffffffffffffffffffffffffffffffffff1602179055508173ffffffffffffffffffffffffffffffffffffffff168173ffffffffffffffffffffffffffffffffffffffff167f8be0079c531659141344cd1fd0a4f28419497f9722a3daafe3b4186f6b6457e060405160405180910390a35050565b600073ffffffffffffffffffffffffffffffffffffffff168273ffffffffffffffffffffffffffffffffffffffff16036110805760006040517fced3e1000000000000000000000000000000000000000000000000000000000081526004016110779190612722565b60405180910390fd5b80600160008573ffffffffffffffffffffffffffffffffffffffff1673ffffffffffffffffffffffffffffffffffffffff16815260200190815260200160002060008473ffffffffffffffffffffffffffffffffffffffff1673ffffffffffffffffffffffffffffffffffffffff16815260200190815260200160002060006101000a81548160ff0219169083151502179055508173ffffffffffffffffffffffffffffffffffffffff168373ffffffffffffffffffffffffffffffffffffffff167f17307eab39ab6107e8899845ad3d59bd9653f200f220920489ca2b5937696c318360405161117191906120c9565b60405180910390a3505050565b600073ffffffffffffffffffffffffffffffffffffffff168473ffffffffffffffffffffffffffffffffffffffff16036111f05760006040517f57f447ce0000000000000000000000000000000000000000000000000000000081526004016111e79190612722565b60405180910390fd5b6000806111fd8585611767565b9150915061120f6000878484876116b5565b505050505050565b806004600084815260200190815260200160002090816112379190612f72565b50817f6bb7ff708619ba0610cba295a58592e0451dee2622938c8755667688daf3529b611263846103c7565b60405161127091906121a1565b60405180910390a25050565b6000611286610d8f565b6bffffffffffffffffffffffff16905080826bffffffffffffffffffffffff1611156112ed578382826040517fdfd1fc1b0000000000000000000000000000000000000000000000000000000081526004016112e493929190613158565b60405180910390fd5b600073ffffffffffffffffffffffffffffffffffffffff168373ffffffffffffffffffffffffffffffffffffffff1603611361578360006040517f969f085200000000000000000000000000000000000000000000000000000000815260040161135892919061318f565b60405180910390fd5b60405180604001604052808473ffffffffffffffffffffffffffffffffffffffff168152602001836bffffffffffffffffffffffff168152506007600086815260200190815260200160002060008201518160000160006101000a81548173ffffffffffffffffffffffffffffffffffffffff021916908373ffffffffffffffffffffffffffffffffffffffff16021790555060208201518160000160146101000a8154816bffffffffffffffffffffffff02191690836bffffffffffffffffffffffff16021790555090505050505050565b600073ffffffffffffffffffffffffffffffffffffffff168473ffffffffffffffffffffffffffffffffffffffff16036114a65760006040517f57f447ce00000000000000000000000000000000000000000000000000000000815260040161149d9190612722565b60405180910390fd5b600073ffffffffffffffffffffffffffffffffffffffff168573ffffffffffffffffffffffffffffffffffffffff16036115185760006040517f01a8351400000000000000000000000000000000000000000000000000000000815260040161150f9190612722565b60405180910390fd5b6000806115258585611767565b9150915061153687878484876116b5565b50505050505050565b60007fd9b67a26000000000000000000000000000000000000000000000000000000007bffffffffffffffffffffffffffffffffffffffffffffffffffffffff1916827bffffffffffffffffffffffffffffffffffffffffffffffffffffffff1916148061160a57507f0e89341c000000000000000000000000000000000000000000000000000000007bffffffffffffffffffffffffffffffffffffffffffffffffffffffff1916827bffffffffffffffffffffffffffffffffffffffffffffffffffffffff1916145b8061161a575061161982611797565b5b9050919050565b60606002805461163090612d95565b80601f016020809104026020016040519081016040528092919081815260200182805461165c90612d95565b80156116a95780601f1061167e576101008083540402835291602001916116a9565b820191906000526020600020905b81548152906001019060200180831161168c57829003601f168201915b50505050509050919050565b6116c185858585611801565b600073ffffffffffffffffffffffffffffffffffffffff168473ffffffffffffffffffffffffffffffffffffffff16146117605760006116ff610d99565b9050600184510361174f576000611720600086610ead90919063ffffffff16565b90506000611738600086610ead90919063ffffffff16565b9050611748838989858589611baf565b505061175e565b61175d818787878787611d63565b5b505b5050505050565b60608060405191506001825283602083015260408201905060018152826020820152604081016040529250929050565b60007f01ffc9a7000000000000000000000000000000000000000000000000000000007bffffffffffffffffffffffffffffffffffffffffffffffffffffffff1916827bffffffffffffffffffffffffffffffffffffffffffffffffffffffff1916149050919050565b805182511461184b57815181516040517f5b059991000000000000000000000000000000000000000000000000000000008152600401611842929190612cc6565b60405180910390fd5b6000611855610d99565b905060005b8351811015611a6a5760006118788286610ead90919063ffffffff16565b9050600061188f8386610ead90919063ffffffff16565b9050600073ffffffffffffffffffffffffffffffffffffffff168873ffffffffffffffffffffffffffffffffffffffff16146119bc57600080600084815260200190815260200160002060008a73ffffffffffffffffffffffffffffffffffffffff1673ffffffffffffffffffffffffffffffffffffffff1681526020019081526020016000205490508181101561196457888183856040517f03dee4c500000000000000000000000000000000000000000000000000000000815260040161195b94939291906131b8565b60405180910390fd5b81810360008085815260200190815260200160002060008b73ffffffffffffffffffffffffffffffffffffffff1673ffffffffffffffffffffffffffffffffffffffff16815260200190815260200160002081905550505b600073ffffffffffffffffffffffffffffffffffffffff168773ffffffffffffffffffffffffffffffffffffffff1614611a57578060008084815260200190815260200160002060008973ffffffffffffffffffffffffffffffffffffffff1673ffffffffffffffffffffffffffffffffffffffff1681526020019081526020016000206000828254611a4f91906131fd565b925050819055505b505080611a6390612d1e565b905061185a565b506001835103611b29576000611a8a600085610ead90919063ffffffff16565b90506000611aa2600085610ead90919063ffffffff16565b90508573ffffffffffffffffffffffffffffffffffffffff168773ffffffffffffffffffffffffffffffffffffffff168473ffffffffffffffffffffffffffffffffffffffff167fc3d58168c5ae7397731d063d5bbf3d657854427343f4c083240f7aacaa2d0f628585604051611b1a929190612cc6565b60405180910390a45050611ba8565b8373ffffffffffffffffffffffffffffffffffffffff168573ffffffffffffffffffffffffffffffffffffffff168273ffffffffffffffffffffffffffffffffffffffff167f4a39dc06d4c0dbc64b70af90fd698a233a518aa5d07e595d983b8c0526c8f7fb8686604051611b9f929190613231565b60405180910390a45b5050505050565b60008473ffffffffffffffffffffffffffffffffffffffff163b1115611d5b578373ffffffffffffffffffffffffffffffffffffffff1663f23a6e6187878686866040518663ffffffff1660e01b8152600401611c109594939291906132bd565b6020604051808303816000875af1925050508015611c4c57506040513d601f19601f82011682018060405250810190611c49919061332c565b60015b611cd0573d8060008114611c7c576040519150601f19603f3d011682016040523d82523d6000602084013e611c81565b606091505b506000815103611cc857846040517f57f447ce000000000000000000000000000000000000000000000000000000008152600401611cbf9190612722565b60405180910390fd5b805160208201fd5b63f23a6e6160e01b7bffffffffffffffffffffffffffffffffffffffffffffffffffffffff1916817bffffffffffffffffffffffffffffffffffffffffffffffffffffffff191614611d5957846040517f57f447ce000000000000000000000000000000000000000000000000000000008152600401611d509190612722565b60405180910390fd5b505b505050505050565b60008473ffffffffffffffffffffffffffffffffffffffff163b1115611f0f578373ffffffffffffffffffffffffffffffffffffffff1663bc197c8187878686866040518663ffffffff1660e01b8152600401611dc4959493929190613359565b6020604051808303816000875af1925050508015611e0057506040513d601f19601f82011682018060405250810190611dfd919061332c565b60015b611e84573d8060008114611e30576040519150601f19603f3d011682016040523d82523d6000602084013e611e35565b606091505b506000815103611e7c57846040517f57f447ce000000000000000000000000000000000000000000000000000000008152600401611e739190612722565b60405180910390fd5b805160208201fd5b63bc197c8160e01b7bffffffffffffffffffffffffffffffffffffffffffffffffffffffff1916817bffffffffffffffffffffffffffffffffffffffffffffffffffffffff191614611f0d57846040517f57f447ce000000000000000000000000000000000000000000000000000000008152600401611f049190612722565b60405180910390fd5b505b505050505050565b6000604051905090565b600080fd5b600080fd5b600073ffffffffffffffffffffffffffffffffffffffff82169050919050565b6000611f5682611f2b565b9050919050565b611f6681611f4b565b8114611f7157600080fd5b50565b600081359050611f8381611f5d565b92915050565b6000819050919050565b611f9c81611f89565b8114611fa757600080fd5b50565b600081359050611fb981611f93565b92915050565b60008060408385031215611fd657611fd5611f21565b5b6000611fe485828601611f74565b9250506020611ff585828601611faa565b9150509250929050565b61200881611f89565b82525050565b60006020820190506120236000830184611fff565b92915050565b60007fffffffff0000000000000000000000000000000000000000000000000000000082169050919050565b61205e81612029565b811461206957600080fd5b50565b60008135905061207b81612055565b92915050565b60006020828403121561209757612096611f21565b5b60006120a58482850161206c565b91505092915050565b60008115159050919050565b6120c3816120ae565b82525050565b60006020820190506120de60008301846120ba565b92915050565b6000602082840312156120fa576120f9611f21565b5b600061210884828501611faa565b91505092915050565b600081519050919050565b600082825260208201905092915050565b60005b8381101561214b578082015181840152602081019050612130565b60008484015250505050565b6000601f19601f8301169050919050565b600061217382612111565b61217d818561211c565b935061218d81856020860161212d565b61219681612157565b840191505092915050565b600060208201905081810360008301526121bb8184612168565b905092915050565b600080604083850312156121da576121d9611f21565b5b60006121e885828601611faa565b92505060206121f985828601611faa565b9150509250929050565b61220c81611f4b565b82525050565b60006040820190506122276000830185612203565b6122346020830184611fff565b9392505050565b600080fd5b7f4e487b7100000000000000000000000000000000000000000000000000000000600052604160045260246000fd5b61227882612157565b810181811067ffffffffffffffff8211171561229757612296612240565b5b80604052505050565b60006122aa611f17565b90506122b6828261226f565b919050565b600067ffffffffffffffff8211156122d6576122d5612240565b5b602082029050602081019050919050565b600080fd5b60006122ff6122fa846122bb565b6122a0565b90508083825260208201905060208402830185811115612322576123216122e7565b5b835b8181101561234b57806123378882611faa565b845260208401935050602081019050612324565b5050509392505050565b600082601f83011261236a5761236961223b565b5b813561237a8482602086016122ec565b91505092915050565b600080fd5b600067ffffffffffffffff8211156123a3576123a2612240565b5b6123ac82612157565b9050602081019050919050565b82818337600083830152505050565b60006123db6123d684612388565b6122a0565b9050828152602081018484840111156123f7576123f6612383565b5b6124028482856123b9565b509392505050565b600082601f83011261241f5761241e61223b565b5b813561242f8482602086016123c8565b91505092915050565b600080600080600060a0868803121561245457612453611f21565b5b600061246288828901611f74565b955050602061247388828901611f74565b945050604086013567ffffffffffffffff81111561249457612493611f26565b5b6124a088828901612355565b935050606086013567ffffffffffffffff8111156124c1576124c0611f26565b5b6124cd88828901612355565b925050608086013567ffffffffffffffff8111156124ee576124ed611f26565b5b6124fa8882890161240a565b9150509295509295909350565b600067ffffffffffffffff82111561252257612521612240565b5b602082029050602081019050919050565b600061254661254184612507565b6122a0565b90508083825260208201905060208402830185811115612569576125686122e7565b5b835b81811015612592578061257e8882611f74565b84526020840193505060208101905061256b565b5050509392505050565b600082601f8301126125b1576125b061223b565b5b81356125c1848260208601612533565b91505092915050565b600080604083850312156125e1576125e0611f21565b5b600083013567ffffffffffffffff8111156125ff576125fe611f26565b5b61260b8582860161259c565b925050602083013567ffffffffffffffff81111561262c5761262b611f26565b5b61263885828601612355565b9150509250929050565b600081519050919050565b600082825260208201905092915050565b6000819050602082019050919050565b61267781611f89565b82525050565b6000612689838361266e565b60208301905092915050565b6000602082019050919050565b60006126ad82612642565b6126b7818561264d565b93506126c28361265e565b8060005b838110156126f35781516126da888261267d565b97506126e583612695565b9250506001810190506126c6565b5085935050505092915050565b6000602082019050818103600083015261271a81846126a2565b905092915050565b60006020820190506127376000830184612203565b92915050565b612746816120ae565b811461275157600080fd5b50565b6000813590506127638161273d565b92915050565b600080604083850312156127805761277f611f21565b5b600061278e85828601611f74565b925050602061279f85828601612754565b9150509250929050565b60006060820190506127be6000830186611fff565b6127cb6020830185612203565b81810360408301526127dd8184612168565b9050949350505050565b600081519050919050565b600082825260208201905092915050565b6000819050602082019050919050565b61281c81611f4b565b82525050565b600082825260208201905092915050565b600061283e82612111565b6128488185612822565b935061285881856020860161212d565b61286181612157565b840191505092915050565b6000606083016000830151612884600086018261266e565b5060208301516128976020860182612813565b50604083015184820360408601526128af8282612833565b9150508091505092915050565b60006128c8838361286c565b905092915050565b6000602082019050919050565b60006128e8826127e7565b6128f281856127f2565b93508360208202850161290485612803565b8060005b85811015612940578484038952815161292185826128bc565b945061292c836128d0565b925060208a01995050600181019050612908565b50829750879550505050505092915050565b6000602082019050818103600083015261296c81846128dd565b905092915050565b600067ffffffffffffffff82111561298f5761298e612240565b5b61299882612157565b9050602081019050919050565b60006129b86129b384612974565b6122a0565b9050828152602081018484840111156129d4576129d3612383565b5b6129df8482856123b9565b509392505050565b600082601f8301126129fc576129fb61223b565b5b8135612a0c8482602086016129a5565b91505092915050565b60006bffffffffffffffffffffffff82169050919050565b612a3681612a15565b8114612a4157600080fd5b50565b600081359050612a5381612a2d565b92915050565b600080600060608486031215612a7257612a71611f21565b5b600084013567ffffffffffffffff811115612a9057612a8f611f26565b5b612a9c868287016129e7565b9350506020612aad86828701612a44565b9250506040612abe86828701611f74565b9150509250925092565b60008060408385031215612adf57612ade611f21565b5b6000612aed85828601611f74565b9250506020612afe85828601611f74565b9150509250929050565b600080600080600060a08688031215612b2457612b23611f21565b5b6000612b3288828901611f74565b9550506020612b4388828901611f74565b9450506040612b5488828901611faa565b9350506060612b6588828901611faa565b925050608086013567ffffffffffffffff811115612b8657612b85611f26565b5b612b928882890161240a565b9150509295509295909350565b600060208284031215612bb557612bb4611f21565b5b6000612bc384828501611f74565b91505092915050565b7f4e487b7100000000000000000000000000000000000000000000000000000000600052601160045260246000fd5b6000612c0682611f89565b9150612c1183611f89565b9250828202612c1f81611f89565b91508282048414831517612c3657612c35612bcc565b5b5092915050565b7f4e487b7100000000000000000000000000000000000000000000000000000000600052601260045260246000fd5b6000612c7782611f89565b9150612c8283611f89565b925082612c9257612c91612c3d565b5b828204905092915050565b6000604082019050612cb26000830185612203565b612cbf6020830184612203565b9392505050565b6000604082019050612cdb6000830185611fff565b612ce86020830184611fff565b9392505050565b7f4e487b7100000000000000000000000000000000000000000000000000000000600052603260045260246000fd5b6000612d2982611f89565b91507fffffffffffffffffffffffffffffffffffffffffffffffffffffffffffffffff8203612d5b57612d5a612bcc565b5b600182019050919050565b7f4e487b7100000000000000000000000000000000000000000000000000000000600052602260045260246000fd5b60006002820490506001821680612dad57607f821691505b602082108103612dc057612dbf612d66565b5b50919050565b60008190508160005260206000209050919050565b60006020601f8301049050919050565b600082821b905092915050565b600060088302612e287fffffffffffffffffffffffffffffffffffffffffffffffffffffffffffffffff82612deb565b612e328683612deb565b95508019841693508086168417925050509392505050565b6000819050919050565b6000612e6f612e6a612e6584611f89565b612e4a565b611f89565b9050919050565b6000819050919050565b612e8983612e54565b612e9d612e9582612e76565b848454612df8565b825550505050565b600090565b612eb2612ea5565b612ebd818484612e80565b505050565b5b81811015612ee157612ed6600082612eaa565b600181019050612ec3565b5050565b601f821115612f2657612ef781612dc6565b612f0084612ddb565b81016020851015612f0f578190505b612f23612f1b85612ddb565b830182612ec2565b50505b505050565b600082821c905092915050565b6000612f4960001984600802612f2b565b1980831691505092915050565b6000612f628383612f38565b9150826002028217905092915050565b612f7b82612111565b67ffffffffffffffff811115612f9457612f93612240565b5b612f9e8254612d95565b612fa9828285612ee5565b600060209050601f831160018114612fdc5760008415612fca578287015190505b612fd48582612f56565b86555061303c565b601f198416612fea86612dc6565b60005b8281101561301257848901518255600182019150602085019450602081019050612fed565b8683101561302f578489015161302b601f891682612f38565b8355505b6001600288020188555050505b505050505050565b600081905092915050565b6000815461305c81612d95565b6130668186613044565b945060018216600081146130815760018114613096576130c9565b60ff19831686528115158202860193506130c9565b61309f85612dc6565b60005b838110156130c1578154818901526001820191506020810190506130a2565b838801955050505b50505092915050565b60006130dd82612111565b6130e78185613044565b93506130f781856020860161212d565b80840191505092915050565b600061310f828561304f565b915061311b82846130d2565b91508190509392505050565b600061314261313d61313884612a15565b612e4a565b611f89565b9050919050565b61315281613127565b82525050565b600060608201905061316d6000830186611fff565b61317a6020830185613149565b6131876040830184611fff565b949350505050565b60006040820190506131a46000830185611fff565b6131b16020830184612203565b9392505050565b60006080820190506131cd6000830187612203565b6131da6020830186611fff565b6131e76040830185611fff565b6131f46060830184611fff565b95945050505050565b600061320882611f89565b915061321383611f89565b925082820190508082111561322b5761322a612bcc565b5b92915050565b6000604082019050818103600083015261324b81856126a2565b9050818103602083015261325f81846126a2565b90509392505050565b600081519050919050565b600082825260208201905092915050565b600061328f82613268565b6132998185613273565b93506132a981856020860161212d565b6132b281612157565b840191505092915050565b600060a0820190506132d26000830188612203565b6132df6020830187612203565b6132ec6040830186611fff565b6132f96060830185611fff565b818103608083015261330b8184613284565b90509695505050505050565b60008151905061332681612055565b92915050565b60006020828403121561334257613341611f21565b5b600061335084828501613317565b91505092915050565b600060a08201905061336e6000830188612203565b61337b6020830187612203565b818103604083015261338d81866126a2565b905081810360608301526133a181856126a2565b905081810360808301526133b58184613284565b9050969550505050505056fea2646970667358221220b5d193cdc165713ac63e6e240b660c4c633ca287c521019f4aa1f9c20801d18564736f6c63430008140033",
  "linkReferences": {},
  "deployedLinkReferences": {}
}