{
  "_format": "hh-sol-artifact-1",
  "contractName": "CR8TEMusic",
  "sourceName": "contracts/CR8TEMusic.sol",
  "abi": [
    {
      "inputs": [],
      "stateMutability": "nonpayable",
      "type": "constructor"
    },
    {
      "inputs": [
        {
          "internalType": "address",
          "name": "sender",
          "type": "address"
        },
        {
          "internalType": "uint256",
          "name": "balance",
          "type": "uint256"
        },
        {
          "internalType": "uint256",
          "name": "needed",
          "type": "uint256"
        },
        {
          "internalType": "uint256",
          "name": "tokenId",
          "type": "uint256"
        }
      ],
      "name": "ERC1155InsufficientBalance",
      "type": "error"
    },
    {
      "inputs": [
        {
          "internalType": "address",
          "name": "approver",
          "type": "address"
        }
      ],
      "name": "ERC1155InvalidApprover",
      "type": "error"
    },
    {
      "inputs": [
        {
          "internalType": "uint256",
          "name": "idsLength",
          "type": "uint256"
        },
        {
          "internalType": "uint256",
          "name": "valuesLength",
          "type": "uint256"
        }
      ],
      "name": "ERC1155InvalidArrayLength",
      "type": "error"
    },
    {
      "inputs": [
        {
          "internalType": "address",
          "name": "operator",
          "type": "address"
        }
      ],
      "name": "ERC1155InvalidOperator",
      "type": "error"
    },
    {
      "inputs": [
        {
          "internalType": "address",
          "name": "receiver",
          "type": "address"
        }
      ],
      "name": "ERC1155InvalidReceiver",
      "type": "error"
    },
    {
      "inputs": [
        {
          "internalType": "address",
          "name": "sender",
          "type": "address"
        }
      ],
      "name": "ERC1155InvalidSender",
      "type": "error"
    },
    {
      "inputs": [
        {
          "internalType": "address",
          "name": "operator",
          "type": "address"
        },
        {
          "internalType": "address",
          "name": "owner",
          "type": "address"
        }
      ],
      "name": "ERC1155MissingApprovalForAll",
      "type": "error"
    },
    {
      "inputs": [
        {
          "internalType": "uint256",
          "name": "numerator",
          "type": "uint256"
        },
        {
          "internalType": "uint256",
          "name": "denominator",
          "type": "uint256"
        }
      ],
      "name": "ERC2981InvalidDefaultRoyalty",
      "type": "error"
    },
    {
      "inputs": [
        {
          "internalType": "address",
          "name": "receiver",
          "type": "address"
        }
      ],
      "name": "ERC2981InvalidDefaultRoyaltyReceiver",
      "type": "error"
    },
    {
      "inputs": [
        {
          "internalType": "uint256",
          "name": "tokenId",
          "type": "uint256"
        },
        {
          "internalType": "uint256",
          "name": "numerator",
          "type": "uint256"
        },
        {
          "internalType": "uint256",
          "name": "denominator",
          "type": "uint256"
        }
      ],
      "name": "ERC2981InvalidTokenRoyalty",
      "type": "error"
    },
    {
      "inputs": [
        {
          "internalType": "uint256",
          "name": "tokenId",
          "type": "uint256"
        },
        {
          "internalType": "address",
          "name": "receiver",
          "type": "address"
        }
      ],
      "name": "ERC2981InvalidTokenRoyaltyReceiver",
      "type": "error"
    },
    {
      "inputs": [
        {
          "internalType": "address",
          "name": "owner",
          "type": "address"
        }
      ],
      "name": "OwnableInvalidOwner",
      "type": "error"
    },
    {
      "inputs": [
        {
          "internalType": "address",
          "name": "account",
          "type": "address"
        }
      ],
      "name": "OwnableUnauthorizedAccount",
      "type": "error"
    },
    {
      "anonymous": false,
      "inputs": [
        {
          "indexed": true,
          "internalType": "address",
          "name": "account",
          "type": "address"
        },
        {
          "indexed": true,
          "internalType": "address",
          "name": "operator",
          "type": "address"
        },
        {
          "indexed": false,
          "internalType": "bool",
          "name": "approved",
          "type": "bool"
        }
      ],
      "name": "ApprovalForAll",
      "type": "event"
    },
    {
      "anonymous": false,
      "inputs": [
        {
          "indexed": true,
          "internalType": "address",
          "name": "previousOwner",
          "type": "address"
        },
        {
          "indexed": true,
          "internalType": "address",
          "name": "newOwner",
          "type": "address"
        }
      ],
      "name": "OwnershipTransferred",
      "type": "event"
    },
    {
      "anonymous": false,
      "inputs": [
        {
          "indexed": true,
          "internalType": "address",
          "name": "operator",
          "type": "address"
        },
        {
          "indexed": true,
          "internalType": "address",
          "name": "from",
          "type": "address"
        },
        {
          "indexed": true,
          "internalType": "address",
          "name": "to",
          "type": "address"
        },
        {
          "indexed": false,
          "internalType": "uint256[]",
          "name": "ids",
          "type": "uint256[]"
        },
        {
          "indexed": false,
          "internalType": "uint256[]",
          "name": "values",
          "type": "uint256[]"
        }
      ],
      "name": "TransferBatch",
      "type": "event"
    },
    {
      "anonymous": false,
      "inputs": [
        {
          "indexed": true,
          "internalType": "address",
          "name": "operator",
          "type": "address"
        },
        {
          "indexed": true,
          "internalType": "address",
          "name": "from",
          "type": "address"
        },
        {
          "indexed": true,
          "internalType": "address",
          "name": "to",
          "type": "address"
        },
        {
          "indexed": false,
          "internalType": "uint256",
          "name": "id",
          "type": "uint256"
        },
        {
          "indexed": false,
          "internalType": "uint256",
          "name": "value",
          "type": "uint256"
        }
      ],
      "name": "TransferSingle",
      "type": "event"
    },
    {
      "anonymous": false,
      "inputs": [
        {
          "indexed": false,
          "internalType": "string",
          "name": "value",
          "type": "string"
        },
        {
          "indexed": true,
          "internalType": "uint256",
          "name": "id",
          "type": "uint256"
        }
      ],
      "name": "URI",
      "type": "event"
    },
    {
      "inputs": [
        {
          "internalType": "address",
          "name": "account",
          "type": "address"
        },
        {
          "internalType": "uint256",
          "name": "id",
          "type": "uint256"
        }
      ],
      "name": "balanceOf",
      "outputs": [
        {
          "internalType": "uint256",
          "name": "",
          "type": "uint256"
        }
      ],
      "stateMutability": "view",
      "type": "function"
    },
    {
      "inputs": [
        {
          "internalType": "address[]",
          "name": "accounts",
          "type": "address[]"
        },
        {
          "internalType": "uint256[]",
          "name": "ids",
          "type": "uint256[]"
        }
      ],
      "name": "balanceOfBatch",
      "outputs": [
        {
          "internalType": "uint256[]",
          "name": "",
          "type": "uint256[]"
        }
      ],
      "stateMutability": "view",
      "type": "function"
    },
    {
      "inputs": [],
      "name": "getAllTracks",
      "outputs": [
        {
          "components": [
            {
              "internalType": "uint256",
              "name": "id",
              "type": "uint256"
            },
            {
              "internalType": "address",
              "name": "artist",
              "type": "address"
            },
            {
              "internalType": "string",
              "name": "uri",
              "type": "string"
            }
          ],
          "internalType": "struct CR8TEMusic.Track[]",
          "name": "",
          "type": "tuple[]"
        }
      ],
      "stateMutability": "view",
      "type": "function"
    },
    {
      "inputs": [
        {
          "internalType": "address",
          "name": "account",
          "type": "address"
        },
        {
          "internalType": "address",
          "name": "operator",
          "type": "address"
        }
      ],
      "name": "isApprovedForAll",
      "outputs": [
        {
          "internalType": "bool",
          "name": "",
          "type": "bool"
        }
      ],
      "stateMutability": "view",
      "type": "function"
    },
    {
      "inputs": [
        {
          "internalType": "address",
          "name": "_to",
          "type": "address"
        },
        {
          "internalType": "string",
          "name": "_tokenURI",
          "type": "string"
        },
        {
          "internalType": "uint96",
          "name": "_royaltyFeeNumerator",
          "type": "uint96"
        },
        {
          "internalType": "address",
          "name": "_royaltyReceiver",
          "type": "address"
        }
      ],
      "name": "mintTo",
      "outputs": [
        {
          "internalType": "uint256",
          "name": "",
          "type": "uint256"
        }
      ],
      "stateMutability": "nonpayable",
      "type": "function"
    },
    {
      "inputs": [
        {
          "internalType": "string",
          "name": "_tokenURI",
          "type": "string"
        },
        {
          "internalType": "uint96",
          "name": "_royaltyFeeNumerator",
          "type": "uint96"
        },
        {
          "internalType": "address",
          "name": "_royaltyReceiver",
          "type": "address"
        }
      ],
      "name": "mintTrack",
      "outputs": [
        {
          "internalType": "uint256",
          "name": "",
          "type": "uint256"
        }
      ],
      "stateMutability": "nonpayable",
      "type": "function"
    },
    {
      "inputs": [],
      "name": "nextTokenId",
      "outputs": [
        {
          "internalType": "uint256",
          "name": "",
          "type": "uint256"
        }
      ],
      "stateMutability": "view",
      "type": "function"
    },
    {
      "inputs": [],
      "name": "owner",
      "outputs": [
        {
          "internalType": "address",
          "name": "",
          "type": "address"
        }
      ],
      "stateMutability": "view",
      "type": "function"
    },
    {
      "inputs": [],
      "name": "renounceOwnership",
      "outputs": [],
      "stateMutability": "nonpayable",
      "type": "function"
    },
    {
      "inputs": [
        {
          "internalType": "uint256",
          "name": "tokenId",
          "type": "uint256"
        },
        {
          "internalType": "uint256",
          "name": "salePrice",
          "type": "uint256"
        }
      ],
      "name": "royaltyInfo",
      "outputs": [
        {
          "internalType": "address",
          "name": "receiver",
          "type": "address"
        },
        {
          "internalType": "uint256",
          "name": "amount",
          "type": "uint256"
        }
      ],
      "stateMutability": "view",
      "type": "function"
    },
    {
      "inputs": [
        {
          "internalType": "address",
          "name": "from",
          "type": "address"
        },
        {
          "internalType": "address",
          "name": "to",
          "type": "address"
        },
        {
          "internalType": "uint256[]",
          "name": "ids",
          "type": "uint256[]"
        },
        {
          "internalType": "uint256[]",
          "name": "values",
          "type": "uint256[]"
        },
        {
          "internalType": "bytes",
          "name": "data",
          "type": "bytes"
        }
      ],
      "name": "safeBatchTransferFrom",
      "outputs": [],
      "stateMutability": "nonpayable",
      "type": "function"
    },
    {
      "inputs": [
        {
          "internalType": "address",
          "name": "from",
          "type": "address"
        },
        {
          "internalType": "address",
          "name": "to",
          "type": "address"
        },
        {
          "internalType": "uint256",
          "name": "id",
          "type": "uint256"
        },
        {
          "internalType": "uint256",
          "name": "value",
          "type": "uint256"
        },
        {
          "internalType": "bytes",
          "name": "data",
          "type": "bytes"
        }
      ],
      "name": "safeTransferFrom",
      "outputs": [],
      "stateMutability": "nonpayable",
      "type": "function"
    },
    {
      "inputs": [
        {
          "internalType": "address",
          "name": "operator",
          "type": "address"
        },
        {
          "internalType": "bool",
          "name": "approved",
          "type": "bool"
        }
      ],
      "name": "setApprovalForAll",
      "outputs": [],
      "stateMutability": "nonpayable",
      "type": "function"
    },
    {
      "inputs": [
        {
          "internalType": "bytes4",
          "name": "interfaceId",
          "type": "bytes4"
        }
      ],
      "name": "supportsInterface",
      "outputs": [
        {
          "internalType": "bool",
          "name": "",
          "type": "bool"
        }
      ],
      "stateMutability": "view",
      "type": "function"
    },
    {
      "inputs": [
        {
          "internalType": "uint256",
          "name": "",
          "type": "uint256"
        }
      ],
      "name": "tracks",
      "outputs": [
        {
          "internalType": "uint256",
          "name": "id",
          "type": "uint256"
        },
        {
          "internalType": "address",
          "name": "artist",
          "type": "address"
        },
        {
          "internalType": "string",
          "name": "uri",
          "type": "string"
        }
      ],
      "stateMutability": "view",
      "type": "function"
    },
    {
      "inputs": [
        {
          "internalType": "address",
          "name": "newOwner",
          "type": "address"
        }
      ],
      "name": "transferOwnership",
      "outputs": [],
      "stateMutability": "nonpayable",
      "type": "function"
    },
    {
      "inputs": [
        {
          "internalType": "uint256",
          "name": "tokenId",
          "type": "uint256"
        }
      ],
      "name": "uri",
      "outputs": [
        {
          "internalType": "string",
          "name": "",
          "type": "string"
        }
      ],
      "stateMutability": "view",
      "type": "function"
    }
  ],
  "bytecode": "0x6080604052604051806020016040528060008152506003908162000024919062000438565b503480156200003257600080fd5b5033604051806020016040528060008152506200005581620000e360201b60201c565b50600073ffffffffffffffffffffffffffffffffffffffff168173ffffffffffffffffffffffffffffffffffffffff1603620000cb5760006040517f1e4fbdf7000000000000000000000000000000000000000000000000000000008152600401620000c2919062000564565b60405180910390fd5b620000dc81620000f860201b60201c565b5062000581565b8060029081620000f4919062000438565b5050565b6000600560009054906101000a900473ffffffffffffffffffffffffffffffffffffffff16905081600560006101000a81548173ffffffffffffffffffffffffffffffffffffffff021916908373ffffffffffffffffffffffffffffffffffffffff1602179055508173ffffffffffffffffffffffffffffffffffffffff168173ffffffffffffffffffffffffffffffffffffffff167f8be0079c531659141344cd1fd0a4f28419497f9722a3daafe3b4186f6b6457e060405160405180910390a35050565b600081519050919050565b7f4e487b7100000000000000000000000000000000000000000000000000000000600052604160045260246000fd5b7f4e487b7100000000000000000000000000000000000000000000000000000000600052602260045260246000fd5b600060028204905060018216806200024057607f821691505b602082108103620002565762000255620001f8565b5b50919050565b60008190508160005260206000209050919050565b60006020601f8301049050919050565b600082821b905092915050565b600060088302620002c07fffffffffffffffffffffffffffffffffffffffffffffffffffffffffffffffff8262000281565b620002cc868362000281565b95508019841693508086168417925050509392505050565b6000819050919050565b6000819050919050565b600062000319620003136200030d84620002e4565b620002ee565b620002e4565b9050919050565b6000819050919050565b6200033583620002f8565b6200034d620003448262000320565b8484546200028e565b825550505050565b600090565b6200036462000355565b620003718184846200032a565b505050565b5b8181101562000399576200038d6000826200035a565b60018101905062000377565b5050565b601f821115620003e857620003b2816200025c565b620003bd8462000271565b81016020851015620003cd578190505b620003e5620003dc8562000271565b83018262000376565b50505b505050565b600082821c905092915050565b60006200040d60001984600802620003ed565b1980831691505092915050565b6000620004288383620003fa565b9150826002028217905092915050565b6200044382620001be565b67ffffffffffffffff8111156200045f576200045e620001c9565b5b6200046b825462000227565b620004788282856200039d565b600060209050601f831160018114620004b057600084156200049b578287015190505b620004a785826200041a565b86555062000517565b601f198416620004c0866200025c565b60005b82811015620004ea57848901518255600182019150602085019450602081019050620004c3565b868310156200050a578489015162000506601f891682620003fa565b8355505b6001600288020188555050505b505050505050565b600073ffffffffffffffffffffffffffffffffffffffff82169050919050565b60006200054c826200051f565b9050919050565b6200055e816200053f565b82525050565b60006020820190506200057b600083018462000553565b92915050565b6135c880620005916000396000f3fe608060405234801561001057600080fd5b506004361061010a5760003560e01c80638da5cb5b116100a2578063c0678a6611610071578063c0678a66146102e0578063e431cd75146102fe578063e985e9c51461032e578063f242432a1461035e578063f2fde38b1461037a5761010a565b80638da5cb5b14610244578063a22cb46514610262578063a2e345861461027e578063b3ababaf146102b05761010a565b80632eb2c2d6116100de5780632eb2c2d6146101d05780634e1273f4146101ec578063715018a61461021c57806375794a3c146102265761010a565b8062fdd58e1461010f57806301ffc9a71461013f5780630e89341c1461016f5780632a55205a1461019f575b600080fd5b6101296004803603810190610124919061210d565b610396565b604051610136919061215c565b60405180910390f35b610159600480360381019061015491906121cf565b6103f0565b6040516101669190612217565b60405180910390f35b61018960048036038101906101849190612232565b610402565b60405161019691906122ef565b60405180910390f35b6101b960048036038101906101b49190612311565b610414565b6040516101c7929190612360565b60405180910390f35b6101ea60048036038101906101e59190612586565b610544565b005b61020660048036038101906102019190612718565b6105ec565b604051610213919061284e565b60405180910390f35b6102246106fb565b005b61022e61070f565b60405161023b919061215c565b60405180910390f35b61024c610715565b6040516102599190612870565b60405180910390f35b61027c600480360381019061027791906128b7565b61073f565b005b61029860048036038101906102939190612232565b610755565b6040516102a7939291906128f7565b60405180910390f35b6102ca60048036038101906102c59190612a1a565b610837565b6040516102d7919061215c565b60405180910390f35b6102e8610962565b6040516102f59190612c08565b60405180910390f35b61031860048036038101906103139190612c2a565b610ab3565b604051610325919061215c565b60405180910390f35b61034860048036038101906103439190612c99565b610bbc565b6040516103559190612217565b60405180910390f35b61037860048036038101906103739190612cd9565b610c50565b005b610394600480360381019061038f9190612d70565b610cf8565b005b600080600083815260200190815260200160002060008473ffffffffffffffffffffffffffffffffffffffff1673ffffffffffffffffffffffffffffffffffffffff16815260200190815260200160002054905092915050565b60006103fb82610d7e565b9050919050565b606061040d82610df8565b9050919050565b600080600060076000868152602001908152602001600020905060008160000160009054906101000a900473ffffffffffffffffffffffffffffffffffffffff16905060008260000160149054906101000a90046bffffffffffffffffffffffff169050600073ffffffffffffffffffffffffffffffffffffffff168273ffffffffffffffffffffffffffffffffffffffff16036104f557600660000160009054906101000a900473ffffffffffffffffffffffffffffffffffffffff169150600660000160149054906101000a90046bffffffffffffffffffffffff1690505b60006104ff610edd565b6bffffffffffffffffffffffff16826bffffffffffffffffffffffff16886105279190612dcc565b6105319190612e3d565b9050828195509550505050509250929050565b600061054e610ee7565b90508073ffffffffffffffffffffffffffffffffffffffff168673ffffffffffffffffffffffffffffffffffffffff161415801561059357506105918682610bbc565b155b156105d75780866040517fe237d9220000000000000000000000000000000000000000000000000000000081526004016105ce929190612e6e565b60405180910390fd5b6105e48686868686610eef565b505050505050565b6060815183511461063857815183516040517f5b05999100000000000000000000000000000000000000000000000000000000815260040161062f929190612e97565b60405180910390fd5b6000835167ffffffffffffffff8111156106555761065461238e565b5b6040519080825280602002602001820160405280156106835781602001602082028036833780820191505090505b50905060005b84518110156106f0576106c06106a88287610fe790919063ffffffff16565b6106bb8387610ffb90919063ffffffff16565b610396565b8282815181106106d3576106d2612ec0565b5b602002602001018181525050806106e990612eef565b9050610689565b508091505092915050565b61070361100f565b61070d6000611096565b565b60085481565b6000600560009054906101000a900473ffffffffffffffffffffffffffffffffffffffff16905090565b61075161074a610ee7565b838361115c565b5050565b6009818154811061076557600080fd5b90600052602060002090600302016000915090508060000154908060010160009054906101000a900473ffffffffffffffffffffffffffffffffffffffff16908060020180546107b490612f66565b80601f01602080910402602001604051908101604052809291908181526020018280546107e090612f66565b801561082d5780601f106108025761010080835404028352916020019161082d565b820191906000526020600020905b81548152906001019060200180831161081057829003601f168201915b5050505050905083565b600061084161100f565b6000600854905061086486826001604051806020016040528060008152506112cc565b61086e8186611365565b6108798184866113ca565b600960405180606001604052808381526020018873ffffffffffffffffffffffffffffffffffffffff1681526020018781525090806001815401808255809150506001900390600052602060002090600302016000909190919091506000820151816000015560208201518160010160006101000a81548173ffffffffffffffffffffffffffffffffffffffff021916908373ffffffffffffffffffffffffffffffffffffffff160217905550604082015181600201908161093b9190613143565b5050506008600081548092919061095190612eef565b919050555080915050949350505050565b60606009805480602002602001604051908101604052809291908181526020016000905b82821015610aaa5783829060005260206000209060030201604051806060016040529081600082015481526020016001820160009054906101000a900473ffffffffffffffffffffffffffffffffffffffff1673ffffffffffffffffffffffffffffffffffffffff1673ffffffffffffffffffffffffffffffffffffffff168152602001600282018054610a1990612f66565b80601f0160208091040260200160405190810160405280929190818152602001828054610a4590612f66565b8015610a925780601f10610a6757610100808354040283529160200191610a92565b820191906000526020600020905b815481529060010190602001808311610a7557829003601f168201915b50505050508152505081526020019060010190610986565b50505050905090565b6000806008549050610ad733826001604051806020016040528060008152506112cc565b610ae18186611365565b610aec8184866113ca565b600960405180606001604052808381526020013373ffffffffffffffffffffffffffffffffffffffff1681526020018781525090806001815401808255809150506001900390600052602060002090600302016000909190919091506000820151816000015560208201518160010160006101000a81548173ffffffffffffffffffffffffffffffffffffffff021916908373ffffffffffffffffffffffffffffffffffffffff1602179055506040820151816002019081610bae9190613143565b505050809150509392505050565b6000600160008473ffffffffffffffffffffffffffffffffffffffff1673ffffffffffffffffffffffffffffffffffffffff16815260200190815260200160002060008373ffffffffffffffffffffffffffffffffffffffff1673ffffffffffffffffffffffffffffffffffffffff16815260200190815260200160002060009054906101000a900460ff16905092915050565b6000610c5a610ee7565b90508073ffffffffffffffffffffffffffffffffffffffff168673ffffffffffffffffffffffffffffffffffffffff1614158015610c9f5750610c9d8682610bbc565b155b15610ce35780866040517fe237d922000000000000000000000000000000000000000000000000000000008152600401610cda929190612e6e565b60405180910390fd5b610cf08686868686611582565b505050505050565b610d0061100f565b600073ffffffffffffffffffffffffffffffffffffffff168173ffffffffffffffffffffffffffffffffffffffff1603610d725760006040517f1e4fbdf7000000000000000000000000000000000000000000000000000000008152600401610d699190612870565b60405180910390fd5b610d7b81611096565b50565b60007f2a55205a000000000000000000000000000000000000000000000000000000007bffffffffffffffffffffffffffffffffffffffffffffffffffffffff1916827bffffffffffffffffffffffffffffffffffffffffffffffffffffffff19161480610df15750610df08261168d565b5b9050919050565b60606000600460008481526020019081526020016000208054610e1a90612f66565b80601f0160208091040260200160405190810160405280929190818152602001828054610e4690612f66565b8015610e935780601f10610e6857610100808354040283529160200191610e93565b820191906000526020600020905b815481529060010190602001808311610e7657829003601f168201915b505050505090506000815111610eb157610eac8361176f565b610ed5565b600381604051602001610ec59291906132d4565b6040516020818303038152906040525b915050919050565b6000612710905090565b600033905090565b600073ffffffffffffffffffffffffffffffffffffffff168473ffffffffffffffffffffffffffffffffffffffff1603610f615760006040517f57f447ce000000000000000000000000000000000000000000000000000000008152600401610f589190612870565b60405180910390fd5b600073ffffffffffffffffffffffffffffffffffffffff168573ffffffffffffffffffffffffffffffffffffffff1603610fd35760006040517f01a83514000000000000000000000000000000000000000000000000000000008152600401610fca9190612870565b60405180910390fd5b610fe08585858585611803565b5050505050565b600060208202602084010151905092915050565b600060208202602084010151905092915050565b611017610ee7565b73ffffffffffffffffffffffffffffffffffffffff16611035610715565b73ffffffffffffffffffffffffffffffffffffffff161461109457611058610ee7565b6040517f118cdaa700000000000000000000000000000000000000000000000000000000815260040161108b9190612870565b60405180910390fd5b565b6000600560009054906101000a900473ffffffffffffffffffffffffffffffffffffffff16905081600560006101000a81548173ffffffffffffffffffffffffffffffffffffffff021916908373ffffffffffffffffffffffffffffffffffffffff1602179055508173ffffffffffffffffffffffffffffffffffffffff168173ffffffffffffffffffffffffffffffffffffffff167f8be0079c531659141344cd1fd0a4f28419497f9722a3daafe3b4186f6b6457e060405160405180910390a35050565b600073ffffffffffffffffffffffffffffffffffffffff168273ffffffffffffffffffffffffffffffffffffffff16036111ce5760006040517fced3e1000000000000000000000000000000000000000000000000000000000081526004016111c59190612870565b60405180910390fd5b80600160008573ffffffffffffffffffffffffffffffffffffffff1673ffffffffffffffffffffffffffffffffffffffff16815260200190815260200160002060008473ffffffffffffffffffffffffffffffffffffffff1673ffffffffffffffffffffffffffffffffffffffff16815260200190815260200160002060006101000a81548160ff0219169083151502179055508173ffffffffffffffffffffffffffffffffffffffff168373ffffffffffffffffffffffffffffffffffffffff167f17307eab39ab6107e8899845ad3d59bd9653f200f220920489ca2b5937696c31836040516112bf9190612217565b60405180910390a3505050565b600073ffffffffffffffffffffffffffffffffffffffff168473ffffffffffffffffffffffffffffffffffffffff160361133e5760006040517f57f447ce0000000000000000000000000000000000000000000000000000000081526004016113359190612870565b60405180910390fd5b60008061134b85856118b5565b9150915061135d600087848487611803565b505050505050565b806004600084815260200190815260200160002090816113859190613143565b50817f6bb7ff708619ba0610cba295a58592e0451dee2622938c8755667688daf3529b6113b184610402565b6040516113be91906122ef565b60405180910390a25050565b60006113d4610edd565b6bffffffffffffffffffffffff16905080826bffffffffffffffffffffffff16111561143b578382826040517fdfd1fc1b00000000000000000000000000000000000000000000000000000000815260040161143293929190613329565b60405180910390fd5b600073ffffffffffffffffffffffffffffffffffffffff168373ffffffffffffffffffffffffffffffffffffffff16036114af578360006040517f969f08520000000000000000000000000000000000000000000000000000000081526004016114a6929190613360565b60405180910390fd5b60405180604001604052808473ffffffffffffffffffffffffffffffffffffffff168152602001836bffffffffffffffffffffffff168152506007600086815260200190815260200160002060008201518160000160006101000a81548173ffffffffffffffffffffffffffffffffffffffff021916908373ffffffffffffffffffffffffffffffffffffffff16021790555060208201518160000160146101000a8154816bffffffffffffffffffffffff02191690836bffffffffffffffffffffffff16021790555090505050505050565b600073ffffffffffffffffffffffffffffffffffffffff168473ffffffffffffffffffffffffffffffffffffffff16036115f45760006040517f57f447ce0000000000000000000000000000000000000000000000000000000081526004016115eb9190612870565b60405180910390fd5b600073ffffffffffffffffffffffffffffffffffffffff168573ffffffffffffffffffffffffffffffffffffffff16036116665760006040517f01a8351400000000000000000000000000000000000000000000000000000000815260040161165d9190612870565b60405180910390fd5b60008061167385856118b5565b915091506116848787848487611803565b50505050505050565b60007fd9b67a26000000000000000000000000000000000000000000000000000000007bffffffffffffffffffffffffffffffffffffffffffffffffffffffff1916827bffffffffffffffffffffffffffffffffffffffffffffffffffffffff1916148061175857507f0e89341c000000000000000000000000000000000000000000000000000000007bffffffffffffffffffffffffffffffffffffffffffffffffffffffff1916827bffffffffffffffffffffffffffffffffffffffffffffffffffffffff1916145b806117685750611767826118e5565b5b9050919050565b60606002805461177e90612f66565b80601f01602080910402602001604051908101604052809291908181526020018280546117aa90612f66565b80156117f75780601f106117cc576101008083540402835291602001916117f7565b820191906000526020600020905b8154815290600101906020018083116117da57829003601f168201915b50505050509050919050565b61180f8585858561194f565b600073ffffffffffffffffffffffffffffffffffffffff168473ffffffffffffffffffffffffffffffffffffffff16146118ae57600061184d610ee7565b9050600184510361189d57600061186e600086610ffb90919063ffffffff16565b90506000611886600086610ffb90919063ffffffff16565b9050611896838989858589611cfd565b50506118ac565b6118ab818787878787611eb1565b5b505b5050505050565b60608060405191506001825283602083015260408201905060018152826020820152604081016040529250929050565b60007f01ffc9a7000000000000000000000000000000000000000000000000000000007bffffffffffffffffffffffffffffffffffffffffffffffffffffffff1916827bffffffffffffffffffffffffffffffffffffffffffffffffffffffff1916149050919050565b805182511461199957815181516040517f5b059991000000000000000000000000000000000000000000000000000000008152600401611990929190612e97565b60405180910390fd5b60006119a3610ee7565b905060005b8351811015611bb85760006119c68286610ffb90919063ffffffff16565b905060006119dd8386610ffb90919063ffffffff16565b9050600073ffffffffffffffffffffffffffffffffffffffff168873ffffffffffffffffffffffffffffffffffffffff1614611b0a57600080600084815260200190815260200160002060008a73ffffffffffffffffffffffffffffffffffffffff1673ffffffffffffffffffffffffffffffffffffffff16815260200190815260200160002054905081811015611ab257888183856040517f03dee4c5000000000000000000000000000000000000000000000000000000008152600401611aa99493929190613389565b60405180910390fd5b81810360008085815260200190815260200160002060008b73ffffffffffffffffffffffffffffffffffffffff1673ffffffffffffffffffffffffffffffffffffffff16815260200190815260200160002081905550505b600073ffffffffffffffffffffffffffffffffffffffff168773ffffffffffffffffffffffffffffffffffffffff1614611ba5578060008084815260200190815260200160002060008973ffffffffffffffffffffffffffffffffffffffff1673ffffffffffffffffffffffffffffffffffffffff1681526020019081526020016000206000828254611b9d91906133ce565b925050819055505b505080611bb190612eef565b90506119a8565b506001835103611c77576000611bd8600085610ffb90919063ffffffff16565b90506000611bf0600085610ffb90919063ffffffff16565b90508573ffffffffffffffffffffffffffffffffffffffff168773ffffffffffffffffffffffffffffffffffffffff168473ffffffffffffffffffffffffffffffffffffffff167fc3d58168c5ae7397731d063d5bbf3d657854427343f4c083240f7aacaa2d0f628585604051611c68929190612e97565b60405180910390a45050611cf6565b8373ffffffffffffffffffffffffffffffffffffffff168573ffffffffffffffffffffffffffffffffffffffff168273ffffffffffffffffffffffffffffffffffffffff167f4a39dc06d4c0dbc64b70af90fd698a233a518aa5d07e595d983b8c0526c8f7fb8686604051611ced929190613402565b60405180910390a45b5050505050565b60008473ffffffffffffffffffffffffffffffffffffffff163b1115611ea9578373ffffffffffffffffffffffffffffffffffffffff1663f23a6e6187878686866040518663ffffffff1660e01b8152600401611d5e95949392919061348e565b6020604051808303816000875af1925050508015611d9a57506040513d601f19601f82011682018060405250810190611d9791906134fd565b60015b611e1e573d8060008114611dca576040519150601f19603f3d011682016040523d82523d6000602084013e611dcf565b606091505b506000815103611e1657846040517f57f447ce000000000000000000000000000000000000000000000000000000008152600401611e0d9190612870565b60405180910390fd5b805160208201fd5b63f23a6e6160e01b7bffffffffffffffffffffffffffffffffffffffffffffffffffffffff1916817bffffffffffffffffffffffffffffffffffffffffffffffffffffffff191614611ea757846040517f57f447ce000000000000000000000000000000000000000000000000000000008152600401611e9e9190612870565b60405180910390fd5b505b505050505050565b60008473ffffffffffffffffffffffffffffffffffffffff163b111561205d578373ffffffffffffffffffffffffffffffffffffffff1663bc197c8187878686866040518663ffffffff1660e01b8152600401611f1295949392919061352a565b6020604051808303816000875af1925050508015611f4e57506040513d601f19601f82011682018060405250810190611f4b91906134fd565b60015b611fd2573d8060008114611f7e576040519150601f19603f3d011682016040523d82523d6000602084013e611f83565b606091505b506000815103611fca57846040517f57f447ce000000000000000000000000000000000000000000000000000000008152600401611fc19190612870565b60405180910390fd5b805160208201fd5b63bc197c8160e01b7bffffffffffffffffffffffffffffffffffffffffffffffffffffffff1916817bffffffffffffffffffffffffffffffffffffffffffffffffffffffff19161461205b57846040517f57f447ce0000000000000000000000000000000000000000000000000000000081526004016120529190612870565b60405180910390fd5b505b505050505050565b6000604051905090565b600080fd5b600080fd5b600073ffffffffffffffffffffffffffffffffffffffff82169050919050565b60006120a482612079565b9050919050565b6120b481612099565b81146120bf57600080fd5b50565b6000813590506120d1816120ab565b92915050565b6000819050919050565b6120ea816120d7565b81146120f557600080fd5b50565b600081359050612107816120e1565b92915050565b600080604083850312156121245761212361206f565b5b6000612132858286016120c2565b9250506020612143858286016120f8565b9150509250929050565b612156816120d7565b82525050565b6000602082019050612171600083018461214d565b92915050565b60007fffffffff0000000000000000000000000000000000000000000000000000000082169050919050565b6121ac81612177565b81146121b757600080fd5b50565b6000813590506121c9816121a3565b92915050565b6000602082840312156121e5576121e461206f565b5b60006121f3848285016121ba565b91505092915050565b60008115159050919050565b612211816121fc565b82525050565b600060208201905061222c6000830184612208565b92915050565b6000602082840312156122485761224761206f565b5b6000612256848285016120f8565b91505092915050565b600081519050919050565b600082825260208201905092915050565b60005b8381101561229957808201518184015260208101905061227e565b60008484015250505050565b6000601f19601f8301169050919050565b60006122c18261225f565b6122cb818561226a565b93506122db81856020860161227b565b6122e4816122a5565b840191505092915050565b6000602082019050818103600083015261230981846122b6565b905092915050565b600080604083850312156123285761232761206f565b5b6000612336858286016120f8565b9250506020612347858286016120f8565b9150509250929050565b61235a81612099565b82525050565b60006040820190506123756000830185612351565b612382602083018461214d565b9392505050565b600080fd5b7f4e487b7100000000000000000000000000000000000000000000000000000000600052604160045260246000fd5b6123c6826122a5565b810181811067ffffffffffffffff821117156123e5576123e461238e565b5b80604052505050565b60006123f8612065565b905061240482826123bd565b919050565b600067ffffffffffffffff8211156124245761242361238e565b5b602082029050602081019050919050565b600080fd5b600061244d61244884612409565b6123ee565b905080838252602082019050602084028301858111156124705761246f612435565b5b835b81811015612499578061248588826120f8565b845260208401935050602081019050612472565b5050509392505050565b600082601f8301126124b8576124b7612389565b5b81356124c884826020860161243a565b91505092915050565b600080fd5b600067ffffffffffffffff8211156124f1576124f061238e565b5b6124fa826122a5565b9050602081019050919050565b82818337600083830152505050565b6000612529612524846124d6565b6123ee565b905082815260208101848484011115612545576125446124d1565b5b612550848285612507565b509392505050565b600082601f83011261256d5761256c612389565b5b813561257d848260208601612516565b91505092915050565b600080600080600060a086880312156125a2576125a161206f565b5b60006125b0888289016120c2565b95505060206125c1888289016120c2565b945050604086013567ffffffffffffffff8111156125e2576125e1612074565b5b6125ee888289016124a3565b935050606086013567ffffffffffffffff81111561260f5761260e612074565b5b61261b888289016124a3565b925050608086013567ffffffffffffffff81111561263c5761263b612074565b5b61264888828901612558565b9150509295509295909350565b600067ffffffffffffffff8211156126705761266f61238e565b5b602082029050602081019050919050565b600061269461268f84612655565b6123ee565b905080838252602082019050602084028301858111156126b7576126b6612435565b5b835b818110156126e057806126cc88826120c2565b8452602084019350506020810190506126b9565b5050509392505050565b600082601f8301126126ff576126fe612389565b5b813561270f848260208601612681565b91505092915050565b6000806040838503121561272f5761272e61206f565b5b600083013567ffffffffffffffff81111561274d5761274c612074565b5b612759858286016126ea565b925050602083013567ffffffffffffffff81111561277a57612779612074565b5b612786858286016124a3565b9150509250929050565b600081519050919050565b600082825260208201905092915050565b6000819050602082019050919050565b6127c5816120d7565b82525050565b60006127d783836127bc565b60208301905092915050565b6000602082019050919050565b60006127fb82612790565b612805818561279b565b9350612810836127ac565b8060005b8381101561284157815161282888826127cb565b9750612833836127e3565b925050600181019050612814565b5085935050505092915050565b6000602082019050818103600083015261286881846127f0565b905092915050565b60006020820190506128856000830184612351565b92915050565b612894816121fc565b811461289f57600080fd5b50565b6000813590506128b18161288b565b92915050565b600080604083850312156128ce576128cd61206f565b5b60006128dc858286016120c2565b92505060206128ed858286016128a2565b9150509250929050565b600060608201905061290c600083018661214d565b6129196020830185612351565b818103604083015261292b81846122b6565b9050949350505050565b600067ffffffffffffffff8211156129505761294f61238e565b5b612959826122a5565b9050602081019050919050565b600061297961297484612935565b6123ee565b905082815260208101848484011115612995576129946124d1565b5b6129a0848285612507565b509392505050565b600082601f8301126129bd576129bc612389565b5b81356129cd848260208601612966565b91505092915050565b60006bffffffffffffffffffffffff82169050919050565b6129f7816129d6565b8114612a0257600080fd5b50565b600081359050612a14816129ee565b92915050565b60008060008060808587031215612a3457612a3361206f565b5b6000612a42878288016120c2565b945050602085013567ffffffffffffffff811115612a6357612a62612074565b5b612a6f878288016129a8565b9350506040612a8087828801612a05565b9250506060612a91878288016120c2565b91505092959194509250565b600081519050919050565b600082825260208201905092915050565b6000819050602082019050919050565b612ad281612099565b82525050565b600082825260208201905092915050565b6000612af48261225f565b612afe8185612ad8565b9350612b0e81856020860161227b565b612b17816122a5565b840191505092915050565b6000606083016000830151612b3a60008601826127bc565b506020830151612b4d6020860182612ac9565b5060408301518482036040860152612b658282612ae9565b9150508091505092915050565b6000612b7e8383612b22565b905092915050565b6000602082019050919050565b6000612b9e82612a9d565b612ba88185612aa8565b935083602082028501612bba85612ab9565b8060005b85811015612bf65784840389528151612bd78582612b72565b9450612be283612b86565b925060208a01995050600181019050612bbe565b50829750879550505050505092915050565b60006020820190508181036000830152612c228184612b93565b905092915050565b600080600060608486031215612c4357612c4261206f565b5b600084013567ffffffffffffffff811115612c6157612c60612074565b5b612c6d868287016129a8565b9350506020612c7e86828701612a05565b9250506040612c8f868287016120c2565b9150509250925092565b60008060408385031215612cb057612caf61206f565b5b6000612cbe858286016120c2565b9250506020612ccf858286016120c2565b9150509250929050565b600080600080600060a08688031215612cf557612cf461206f565b5b6000612d03888289016120c2565b9550506020612d14888289016120c2565b9450506040612d25888289016120f8565b9350506060612d36888289016120f8565b925050608086013567ffffffffffffffff811115612d5757612d56612074565b5b612d6388828901612558565b9150509295509295909350565b600060208284031215612d8657612d8561206f565b5b6000612d94848285016120c2565b91505092915050565b7f4e487b7100000000000000000000000000000000000000000000000000000000600052601160045260246000fd5b6000612dd7826120d7565b9150612de2836120d7565b9250828202612df0816120d7565b91508282048414831517612e0757612e06612d9d565b5b5092915050565b7f4e487b7100000000000000000000000000000000000000000000000000000000600052601260045260246000fd5b6000612e48826120d7565b9150612e53836120d7565b925082612e6357612e62612e0e565b5b828204905092915050565b6000604082019050612e836000830185612351565b612e906020830184612351565b9392505050565b6000604082019050612eac600083018561214d565b612eb9602083018461214d565b9392505050565b7f4e487b7100000000000000000000000000000000000000000000000000000000600052603260045260246000fd5b6000612efa826120d7565b91507fffffffffffffffffffffffffffffffffffffffffffffffffffffffffffffffff8203612f2c57612f2b612d9d565b5b600182019050919050565b7f4e487b7100000000000000000000000000000000000000000000000000000000600052602260045260246000fd5b60006002820490506001821680612f7e57607f821691505b602082108103612f9157612f90612f37565b5b50919050565b60008190508160005260206000209050919050565b60006020601f8301049050919050565b600082821b905092915050565b600060088302612ff97fffffffffffffffffffffffffffffffffffffffffffffffffffffffffffffffff82612fbc565b6130038683612fbc565b95508019841693508086168417925050509392505050565b6000819050919050565b600061304061303b613036846120d7565b61301b565b6120d7565b9050919050565b6000819050919050565b61305a83613025565b61306e61306682613047565b848454612fc9565b825550505050565b600090565b613083613076565b61308e818484613051565b505050565b5b818110156130b2576130a760008261307b565b600181019050613094565b5050565b601f8211156130f7576130c881612f97565b6130d184612fac565b810160208510156130e0578190505b6130f46130ec85612fac565b830182613093565b50505b505050565b600082821c905092915050565b600061311a600019846008026130fc565b1980831691505092915050565b60006131338383613109565b9150826002028217905092915050565b61314c8261225f565b67ffffffffffffffff8111156131655761316461238e565b5b61316f8254612f66565b61317a8282856130b6565b600060209050601f8311600181146131ad576000841561319b578287015190505b6131a58582613127565b86555061320d565b601f1984166131bb86612f97565b60005b828110156131e3578489015182556001820191506020850194506020810190506131be565b8683101561320057848901516131fc601f891682613109565b8355505b6001600288020188555050505b505050505050565b600081905092915050565b6000815461322d81612f66565b6132378186613215565b9450600182166000811461325257600181146132675761329a565b60ff198316865281151582028601935061329a565b61327085612f97565b60005b8381101561329257815481890152600182019150602081019050613273565b838801955050505b50505092915050565b60006132ae8261225f565b6132b88185613215565b93506132c881856020860161227b565b80840191505092915050565b60006132e08285613220565b91506132ec82846132a3565b91508190509392505050565b600061331361330e613309846129d6565b61301b565b6120d7565b9050919050565b613323816132f8565b82525050565b600060608201905061333e600083018661214d565b61334b602083018561331a565b613358604083018461214d565b949350505050565b6000604082019050613375600083018561214d565b6133826020830184612351565b9392505050565b600060808201905061339e6000830187612351565b6133ab602083018661214d565b6133b8604083018561214d565b6133c5606083018461214d565b95945050505050565b60006133d9826120d7565b91506133e4836120d7565b92508282019050808211156133fc576133fb612d9d565b5b92915050565b6000604082019050818103600083015261341c81856127f0565b9050818103602083015261343081846127f0565b90509392505050565b600081519050919050565b600082825260208201905092915050565b600061346082613439565b61346a8185613444565b935061347a81856020860161227b565b613483816122a5565b840191505092915050565b600060a0820190506134a36000830188612351565b6134b06020830187612351565b6134bd604083018661214d565b6134ca606083018561214d565b81810360808301526134dc8184613455565b90509695505050505050565b6000815190506134f7816121a3565b92915050565b6000602082840312156135135761351261206f565b5b6000613521848285016134e8565b91505092915050565b600060a08201905061353f6000830188612351565b61354c6020830187612351565b818103604083015261355e81866127f0565b9050818103606083015261357281856127f0565b905081810360808301526135868184613455565b9050969550505050505056fea26469706673582212202cc4de4be1783c26054727364b5fee1bff995c90992e5ba05190428187e917ba64736f6c63430008140033",
  "linkReferences": {},
  "deployedLinkReferences": {}
}