{
  "_format": "hh-sol-artifact-1",
  "contractName": "SocialGraph",
  "sourceName": "contracts/SocialGraph.sol",
  "abi": [
    {
      "anonymous": false,
      "inputs": [
        {
          "indexed": true,
          "internalType": "address",
          "name": "follower",
          "type": "address"
        },
        {
          "indexed": true,
          "internalType": "address",
          "name": "target",
          "type": "address"
        }
      ],
      "name": "Followed",
      "type": "event"
    },
    {
      "anonymous": false,
      "inputs": [
        {
          "indexed": true,
          "internalType": "address",
          "name": "follower",
          "type": "address"
        },
        {
          "indexed": true,
          "internalType": "address",
          "name": "target",
          "type": "address"
        }
      ],
      "name": "Unfollowed",
      "type": "event"
    },
    {
      "inputs": [
        {
          "internalType": "address",
          "name": "target",
          "type": "address"
        }
      ],
      "name": "follow",
      "outputs": [],
      "stateMutability": "nonpayable",
      "type": "function"
    },
    {
      "inputs": [
        {
          "internalType": "address",
          "name": "",
          "type": "address"
        },
        {
          "internalType": "uint256",
          "name": "",
          "type": "uint256"
        }
      ],
      "name": "followers",
      "outputs": [
        {
          "internalType": "address",
          "name": "",
          "type": "address"
        }
      ],
      "stateMutability": "view",
      "type": "function"
    },
    {
      "inputs": [
        {
          "internalType": "address",
          "name": "",
          "type": "address"
        },
        {
          "internalType": "uint256",
          "name": "",
          "type": "uint256"
        }
      ],
      "name": "following",
      "outputs": [
        {
          "internalType": "address",
          "name": "",
          "type": "address"
        }
      ],
      "stateMutability": "view",
      "type": "function"
    },
    {
      "inputs": [
        {
          "internalType": "address",
          "name": "user",
          "type": "address"
        }
      ],
      "name": "getFollowers",
      "outputs": [
        {
          "internalType": "address[]",
          "name": "",
          "type": "address[]"
        }
      ],
      "stateMutability": "view",
      "type": "function"
    },
    {
      "inputs": [
        {
          "internalType": "address",
          "name": "user",
          "type": "address"
        }
      ],
      "name": "getFollowing",
      "outputs": [
        {
          "internalType": "address[]",
          "name": "",
          "type": "address[]"
        }
      ],
      "stateMutability": "view",
      "type": "function"
    },
    {
      "inputs": [
        {
          "internalType": "address",
          "name": "",
          "type": "address"
        },
        {
          "internalType": "address",
          "name": "",
          "type": "address"
        }
      ],
      "name": "isFollowing",
      "outputs": [
        {
          "internalType": "bool",
          "name": "",
          "type": "bool"
        }
      ],
      "stateMutability": "view",
      "type": "function"
    },
    {
      "inputs": [
        {
          "internalType": "address",
          "name": "target",
          "type": "address"
        }
      ],
      "name": "unfollow",
      "outputs": [],
      "stateMutability": "nonpayable",
      "type": "function"
    }
  ],
  "bytecode": "0x608060405234801561001057600080fd5b50611141806100206000396000f3fe608060405234801561001057600080fd5b506004361061007d5760003560e01c806399ec3a421161005b57806399ec3a42146100ea578063c2fe20221461011a578063d8236dff1461014a578063ebd009d31461017a5761007d565b8063015a4ead146100825780634dbf27cc1461009e5780639139cda5146100ba575b600080fd5b61009c60048036038101906100979190610c1e565b6101aa565b005b6100b860048036038101906100b39190610c1e565b6103f4565b005b6100d460048036038101906100cf9190610c81565b6107cc565b6040516100e19190610cd0565b60405180910390f35b61010460048036038101906100ff9190610ceb565b61081a565b6040516101119190610d46565b60405180910390f35b610134600480360381019061012f9190610c1e565b610849565b6040516101419190610e1f565b60405180910390f35b610164600480360381019061015f9190610c1e565b610916565b6040516101719190610e1f565b60405180910390f35b610194600480360381019061018f9190610c81565b6109e2565b6040516101a19190610cd0565b60405180910390f35b600260003373ffffffffffffffffffffffffffffffffffffffff1673ffffffffffffffffffffffffffffffffffffffff16815260200190815260200160002060008273ffffffffffffffffffffffffffffffffffffffff1673ffffffffffffffffffffffffffffffffffffffff16815260200190815260200160002060009054906101000a900460ff16610273576040517f08c379a000000000000000000000000000000000000000000000000000000000815260040161026a90610e9e565b60405180910390fd5b6102ba6000803373ffffffffffffffffffffffffffffffffffffffff1673ffffffffffffffffffffffffffffffffffffffff16815260200190815260200160002082610a30565b610302600160008373ffffffffffffffffffffffffffffffffffffffff1673ffffffffffffffffffffffffffffffffffffffff16815260200190815260200160002033610a30565b6000600260003373ffffffffffffffffffffffffffffffffffffffff1673ffffffffffffffffffffffffffffffffffffffff16815260200190815260200160002060008373ffffffffffffffffffffffffffffffffffffffff1673ffffffffffffffffffffffffffffffffffffffff16815260200190815260200160002060006101000a81548160ff0219169083151502179055508073ffffffffffffffffffffffffffffffffffffffff163373ffffffffffffffffffffffffffffffffffffffff167f25b48012798806863072289354ed0b3849b73152482d9c6694e5cbb35f38d5e360405160405180910390a350565b600073ffffffffffffffffffffffffffffffffffffffff168173ffffffffffffffffffffffffffffffffffffffff1603610463576040517f08c379a000000000000000000000000000000000000000000000000000000000815260040161045a90610f0a565b60405180910390fd5b3373ffffffffffffffffffffffffffffffffffffffff168173ffffffffffffffffffffffffffffffffffffffff16036104d1576040517f08c379a00000000000000000000000000000000000000000000000000000000081526004016104c890610f76565b60405180910390fd5b600260003373ffffffffffffffffffffffffffffffffffffffff1673ffffffffffffffffffffffffffffffffffffffff16815260200190815260200160002060008273ffffffffffffffffffffffffffffffffffffffff1673ffffffffffffffffffffffffffffffffffffffff16815260200190815260200160002060009054906101000a900460ff161561059b576040517f08c379a000000000000000000000000000000000000000000000000000000000815260040161059290610fe2565b60405180910390fd5b6000803373ffffffffffffffffffffffffffffffffffffffff1673ffffffffffffffffffffffffffffffffffffffff168152602001908152602001600020819080600181540180825580915050600190039060005260206000200160009091909190916101000a81548173ffffffffffffffffffffffffffffffffffffffff021916908373ffffffffffffffffffffffffffffffffffffffff160217905550600160008273ffffffffffffffffffffffffffffffffffffffff1673ffffffffffffffffffffffffffffffffffffffff168152602001908152602001600020339080600181540180825580915050600190039060005260206000200160009091909190916101000a81548173ffffffffffffffffffffffffffffffffffffffff021916908373ffffffffffffffffffffffffffffffffffffffff1602179055506001600260003373ffffffffffffffffffffffffffffffffffffffff1673ffffffffffffffffffffffffffffffffffffffff16815260200190815260200160002060008373ffffffffffffffffffffffffffffffffffffffff1673ffffffffffffffffffffffffffffffffffffffff16815260200190815260200160002060006101000a81548160ff0219169083151502179055508073ffffffffffffffffffffffffffffffffffffffff163373ffffffffffffffffffffffffffffffffffffffff167f6178e95c138f06036cdc07a49ed6a3d23008969fa143baeceb037ebae22e8d1460405160405180910390a350565b600060205281600052604060002081815481106107e857600080fd5b906000526020600020016000915091509054906101000a900473ffffffffffffffffffffffffffffffffffffffff1681565b60026020528160005260406000206020528060005260406000206000915091509054906101000a900460ff1681565b6060600160008373ffffffffffffffffffffffffffffffffffffffff1673ffffffffffffffffffffffffffffffffffffffff16815260200190815260200160002080548060200260200160405190810160405280929190818152602001828054801561090a57602002820191906000526020600020905b8160009054906101000a900473ffffffffffffffffffffffffffffffffffffffff1673ffffffffffffffffffffffffffffffffffffffff16815260200190600101908083116108c0575b50505050509050919050565b60606000808373ffffffffffffffffffffffffffffffffffffffff1673ffffffffffffffffffffffffffffffffffffffff1681526020019081526020016000208054806020026020016040519081016040528092919081815260200182805480156109d657602002820191906000526020600020905b8160009054906101000a900473ffffffffffffffffffffffffffffffffffffffff1673ffffffffffffffffffffffffffffffffffffffff168152602001906001019080831161098c575b50505050509050919050565b600160205281600052604060002081815481106109fe57600080fd5b906000526020600020016000915091509054906101000a900473ffffffffffffffffffffffffffffffffffffffff1681565b60005b8280549050811015610bb6578173ffffffffffffffffffffffffffffffffffffffff16838281548110610a6957610a68611002565b5b9060005260206000200160009054906101000a900473ffffffffffffffffffffffffffffffffffffffff1673ffffffffffffffffffffffffffffffffffffffff1603610ba3578260018480549050610ac19190611060565b81548110610ad257610ad1611002565b5b9060005260206000200160009054906101000a900473ffffffffffffffffffffffffffffffffffffffff16838281548110610b1057610b0f611002565b5b9060005260206000200160006101000a81548173ffffffffffffffffffffffffffffffffffffffff021916908373ffffffffffffffffffffffffffffffffffffffff16021790555082805480610b6957610b68611094565b5b6001900381819060005260206000200160006101000a81549073ffffffffffffffffffffffffffffffffffffffff02191690559055610bb6565b8080610bae906110c3565b915050610a33565b505050565b600080fd5b600073ffffffffffffffffffffffffffffffffffffffff82169050919050565b6000610beb82610bc0565b9050919050565b610bfb81610be0565b8114610c0657600080fd5b50565b600081359050610c1881610bf2565b92915050565b600060208284031215610c3457610c33610bbb565b5b6000610c4284828501610c09565b91505092915050565b6000819050919050565b610c5e81610c4b565b8114610c6957600080fd5b50565b600081359050610c7b81610c55565b92915050565b60008060408385031215610c9857610c97610bbb565b5b6000610ca685828601610c09565b9250506020610cb785828601610c6c565b9150509250929050565b610cca81610be0565b82525050565b6000602082019050610ce56000830184610cc1565b92915050565b60008060408385031215610d0257610d01610bbb565b5b6000610d1085828601610c09565b9250506020610d2185828601610c09565b9150509250929050565b60008115159050919050565b610d4081610d2b565b82525050565b6000602082019050610d5b6000830184610d37565b92915050565b600081519050919050565b600082825260208201905092915050565b6000819050602082019050919050565b610d9681610be0565b82525050565b6000610da88383610d8d565b60208301905092915050565b6000602082019050919050565b6000610dcc82610d61565b610dd68185610d6c565b9350610de183610d7d565b8060005b83811015610e12578151610df98882610d9c565b9750610e0483610db4565b925050600181019050610de5565b5085935050505092915050565b60006020820190508181036000830152610e398184610dc1565b905092915050565b600082825260208201905092915050565b7f4e6f7420666f6c6c6f77696e6700000000000000000000000000000000000000600082015250565b6000610e88600d83610e41565b9150610e9382610e52565b602082019050919050565b60006020820190508181036000830152610eb781610e7b565b9050919050565b7f496e76616c696420616464726573730000000000000000000000000000000000600082015250565b6000610ef4600f83610e41565b9150610eff82610ebe565b602082019050919050565b60006020820190508181036000830152610f2381610ee7565b9050919050565b7f43616e6e6f742073656c662d666f6c6c6f770000000000000000000000000000600082015250565b6000610f60601283610e41565b9150610f6b82610f2a565b602082019050919050565b60006020820190508181036000830152610f8f81610f53565b9050919050565b7f416c726561647920666f6c6c6f77696e67000000000000000000000000000000600082015250565b6000610fcc601183610e41565b9150610fd782610f96565b602082019050919050565b60006020820190508181036000830152610ffb81610fbf565b9050919050565b7f4e487b7100000000000000000000000000000000000000000000000000000000600052603260045260246000fd5b7f4e487b7100000000000000000000000000000000000000000000000000000000600052601160045260246000fd5b600061106b82610c4b565b915061107683610c4b565b925082820390508181111561108e5761108d611031565b5b92915050565b7f4e487b7100000000000000000000000000000000000000000000000000000000600052603160045260246000fd5b60006110ce82610c4b565b91507fffffffffffffffffffffffffffffffffffffffffffffffffffffffffffffffff8203611100576110ff611031565b5b60018201905091905056fea264697066735822122052c54a7d5bba835654fb0ef13bb46cfa98d196ae28c3035b9251596d0686a6f764736f6c63430008140033",
  "linkReferences": {},
  "deployedLinkReferences": {}
}